:020000040800F2
:1000000048040020D5000008D10C0008FF0B0008B0
:1000100000000000000000000000000000000000E0
:100020000000000000000000000000001B0D0008A0
:100030000000000000000000190D00081D0D000860
:10004000E700000800000000E7000008E7000008E3
:10005000E7000008E7000008E7000008E7000008E4
:1000600000000000E7000008E7000008E7000008C3
:10007000E7000008E7000008E700000800000000B3
:10008000F10D0008E7000008E7000008E70000089D
:10009000E7000008E7000008E7000008E7000008A4
:1000A000E7000008E7000008E7000008E700000894
:1000B000E7000008E700000800000000E700000873
:1000C0000348854600F02AF800480047150F00084D
:1000D000480400200448804704480047FEE7FEE744
:1000E000FEE7FEE7FEE7FEE78D0D0008C100000811
:1000F00030B50B46014600202022012409E00D46C0
:10010000D5409D4205D31D469540491B2546954047
:1001100040191546521E002DF1DC30BD064C01255C
:10012000064E05E0E36807CC2B430C3C984710349F
:10013000B442F7D3FFF7C8FF680F0008880F000824
:10014000F8B500238DE001249C40A44622407DD0D8
:100150004C68022C01D0122C0CD1DC08A40027180A
:100160003C6A5D07ED0E0F26AE40B4430E69AE400B
:1001700026433E6205685E000324B4400F79A54320
:10018000BF07BF0FB7402F4307604D68012D05D053
:10019000022D03D0112D01D0122D0ED18568CF680C
:1001A000A543B7402F43876047686546AF430D7945
:1001B000ED06ED0F9D403D434560C568A5438C6845
:1001C000B4402C43C4604C68E40049D5284CA56970
:1001D00001263543A561A4699D0834400094254C4F
:1001E000AD002F19BC689D072E0F0F25B540AC43FD
:1001F0000925ED06A84201D100250FE01E4DA842B9
:1002000001D101250AE01D4DA84201D1022505E0DA
:100210001B4DA84201D1032500E00525B54025432B
:10022000BD60184C25684E689543F60300D515430C
:10023000256065684E689543B60300D51543656033
:10024000A5684E689543F60202D500E008E0154324
:10025000A560E5684E689543B60200D51543E56094
:100260005B1C0A681446DC4000D06CE7F8BD000057
:10027000001002400000014000040048000800484F
:10028000000C0048000401400069084000D0012033
:10029000704742694A4042617047002A01D081613B
:1002A0007047816270470000014800687047000095
:1002B0000400002002480168491C016070470000EA
:1002C0000400002010B506480168102211430160A7
:1002D000002000F007F800F017F8002010BD000023
:1002E0000020024010B5044600F0CEF87D21C90080
:1002F000FFF7FEFE00F0C8FA00222146501E00F073
:1003000029F8002010BD000008B50C4881690122C1
:100310001143816180691040002200901146501FF6
:1003200000F018F800221146901E00F013F8002289
:100330001146501E00F00EF808BD000000100240EB
:10034000C106C90E012088400149086070470000BD
:1003500000E100E010B500F0BDFC10BDF8B50546A9
:1003600044480E460068C007C00FB0420AD2414858
:10037000016849084900314301600068C007C00FA7
:10038000B0425CD128783C4C800705D56068F021EC
:100390008843A968084360602878C0073FD0686830
:1003A000012813D02168022813D08907002946DAD2
:1003B00061688908890001436160FFF775FF69681A
:1003C000074601290DD0022917D024E021688903AE
:1003D000ECE78901EAE7FFF767FFC11B2748814285
:1003E00017D860680007800F0128F4D117E0FFF7E5
:1003F0005BFFC11B214881420BD860680007800F5A
:100400000228F4D10BE0FFF74FFFC11B1B488142CC
:1004100001D90320F8BD60680007800FF3D11548AB
:100420000168C907C90FB1420BD9016849084900E1
:10043000314301600068C007C00FB04201D0012005
:10044000F8BD2878400706D560680721090288436F
:10045000E9680843606000F01DF86168084A090611
:10046000090F515CC840074908600020FFF73AFFB8
:100470000020F8BD00200240001002408813000058
:10048000580F000800000020014800687047000075
:100490000000002030B514A30FCB89B06C460FC408
:1004A00015A30FCB0FC418494A680C20144604400A
:1004B0001648042C03D04310082C02D0184609B06B
:1004C00030BD9402240F6D462C5DC96A04AD090746
:1004D000090FD203695C920F022A00D01846FFF779
:1004E00007FE6043EBE70000020304050607080966
:1004F0000A0B0C0D0E0F101001020304050607086D
:10050000090A0B0C0D0E0F10001002400024F4001D
:10051000FEB504460078D24DC00749D06868000790
:10052000800F012820D068680007800F022804D1BE
:100530006868C003800F022816D00120626800049A
:10054000012A18D08100002A01D0052A17D02A6874
:1005500082432A60286888432860606800281BD08E
:10056000FFF7A2FE064613E02868800320D56068E6
:10057000002876D01CE0296801432960EDE72A684D
:100580000A432A60F7E7FFF78FFE801B642869D8CB
:1005900028688003F7D50BE0FFF786FE064604E0E7
:1005A000FFF782FE801B6428F1D828688003F7D407
:1005B00020780126800700283DDA68680007800F50
:1005C00013D068680007800F022804D16868C00350
:1005D000800F012809D0E068002828681CD030432B
:1005E0002860FFF761FE07460BE0286880070BD5FF
:1005F000E068012835D107E0FFF756FEC01B02284E
:10060000C5D828688007F7D52868F821884321696C
:10061000C900084328600EE0400840002860FFF74A
:1006200043FE074604E0FFF73FFEC01B0228AED89A
:1006300028688007F7D42078000723D5E0690028D0
:10064000686A10D030436862FFF72EFE074604E068
:10065000FFF72AFEC01B022899D8686A8007F7D5E1
:1006600010E0FAE0A4E0400840006862FFF71CFEDA
:10067000074604E0FFF718FEC01B022887D8686A07
:100680008007F7D4207804274007002860DA00208C
:100690000190E869C00008D4E969B8060143E9613E
:1006A000E96901400120009101906E480168C90587
:1006B00011D40168821511430160FFF7F5FD009028
:1006C00005E0FFF7F1FD0099401A642870D86548ED
:1006D0000068C005F5D5A06801280AD0002801D01F
:1006E000052810D0286A400840002862286AB843CC
:1006F00001E0286A30432862A068002812D0FFF782
:10070000D3FD00900AE0286A38432862F1E7FFF73A
:10071000CBFD0099411A5448814249D8286A800784
:10072000F5D50DE0FFF7C0FD009006E0FFF7BCFD3A
:100730000099411A4C4881423AD8286A8007F5D47A
:100740000198002804D0E969012000078143E9618C
:100750002078C00635D5606901280CD0401D686B33
:1007600023D038436863686B400840006863FFF734
:100770009BFD064622E0686B38436863686B304334
:100780006863FFF791FD064604E0FFF78DFD801BCF
:1007900002285BD8686B8007F7D5686BF82188431F
:1007A000A169C900084368630BE0B8436863F4E7D4
:1007B0004CE0FFF779FD801B022847D8686B800763
:1007C000F7D4206A002846D069680907890F0229F2
:1007D00043D0012636060228286805D0B043286099
:1007E000FFF762FD044633E0B0432860FFF75CFD8D
:1007F000074604E0FFF758FDC01B022826D82868EA
:100800008001F7D4E86AE16A000900010843E86260
:10081000616AA06A084369687B22D2039143084356
:100820006860286830432860FFF73EFD044604E016
:10083000FFF73AFD001B022808D828688001F7D589
:1008400009E0FFF731FD001B022801D90320FEBD9E
:1008500028688001F5D40020FEBD0120FEBD000007
:100860000010024000700040881300000422044978
:100870000428086902D09043086170471043FBE7E1
:1008800000E000E070470000094910B5401E8842B2
:1008900001D9012010BD074C60610321081F00F041
:1008A00019FA0020A06107202061002010BD00007F
:1008B000FFFFFF0000E000E010B5FFF7E3FF10BD11
:1008C0007047704770B502462032137F012B1BD052
:1008D0000123137702245477046865687026B543B2
:1008E0006560046865680E68354365600468A568DE
:1008F0008026B543A5600068846849680C4384601D
:1009000053770020107770BD022070BD70B50400D1
:1009100005D025462035687F002802D006E001205A
:1009200070BD00202877204600F00AF80220687782
:10093000211D206800F064FA01206877002070BD56
:1009400008B50068094988420FD10948C2690221E7
:100950000A43C261C069002208400090114610207D
:10096000FFF7F8FC1020FFF7EBFC08BD0004004087
:10097000001002400268D36801210B43D360006875
:1009800002680A43026000207047F8B50546044635
:100990002035287F012817D001272F77022068777C
:1009A000226890687726FF23B0431B02984390602B
:1009B0000868502837D00EDC202857D006DC0028E5
:1009C0004ED0102840D14EE00220F8BD302850D043
:1009D000402839D13CE060282DD0702817D0012262
:1009E0001203801A0ED090422ED1CB684A688968D3
:1009F000206800F049FA20688168012292031143BF
:100A0000816021E020688168C908C900F8E7CB68E7
:100A10004A688968206800F037FA21688868B0431E
:100A20003043886010E0CA684968206800F03FFAE7
:100A30005021206806E0CA684968206800F048FA3A
:100A40006021206800F02BFA6F7700202877F8BD2E
:100A5000CA684968206800F02AFA40212068F1E756
:100A600000212068EEE710212068EBE720212068B4
:100A7000E8E730212068E5E7704770B50446006874
:100A800001690025C9438907002915DBC168C943ED
:100A9000890711D4E91E016101202077206880694F
:100AA0008007204602D0FFF7E7FF04E000F096F849
:100AB000204600F094F8257720680169C94349076A
:100AC00017D4C168C943490713D40421C94301613C
:100AD00002202077206880698005800F204602D0A0
:100AE000FFF7CAFF04E000F079F8204600F077F83D
:100AF000257720680169C943090716D4C168C9432D
:100B0000090712D40821C943016104202077206815
:100B1000C0698007204602D0FFF7AEFF04E000F076
:100B20005DF8204600F05BF8257720680169C9432D
:100B3000C90617D4C168C943C90613D41021C943D3
:100B40000161082020772068C0698005800F204659
:100B500002D0FFF791FF04E000F040F8204600F0DB
:100B60003EF8257720680169C943C90708D1C168E3
:100B7000C943C90704D1891E0161204600F030F83D
:100B800020680169C943090609D4C168C943090637
:100B900005D48021C94301612046FFF791FE2068FA
:100BA0000169C943490609D4C168C943490605D446
:100BB0004021C9430161204600F020F82068016906
:100BC000C943890609D4C168C943890605D42021CF
:100BD000C94301612046FFF774FE70BD704770473E
:100BE00010B500680349884203D110210248FFF77D
:100BF00050FB10BD00040040000400487047FEE7B1
:100C000070B5194886B04269012189050A434261DD
:100C100042690A4005924269C9100A434261426929
:100C20000A400592426949100A43426140690F4EE9
:100C300008400590002214213046FFF72EFB0024C7
:100C40000125019469460A4800950294FFF778FA55
:100C50001420009002946946019503943046FFF7F2
:100C60006FFA06B070BD000000100240000400489A
:100C70000008004810B5144886B012490160FF21F1
:100C80000024E13184604160046110498461C160E5
:100C9000FFF73CFE002800D0FEE701200003009093
:100CA00069460948FFF771FE002800D0FEE704946A
:100CB00004A905480594FFF705FE002800D0FEE7CB
:100CC00006B010BD00040040080000204FC3000023
:100CD000704700008307FF22DB0E9A408907090E48
:100CE000994000280BDA0007000F083883080848ED
:100CF0009B001818C36993430B43C3617047830873
:100D000004489B001B1818689043084318607047FC
:100D100000ED00E000E400E07047704710B5FFF719
:100D2000C9FAFFF7C9FD10BD30B591B00120022509
:100D30000190089500900390000409908000002421
:100D40000A900B946846FFF7E3FB002800D0FEE70B
:100D500007200C900E9401210D950F940CA8FFF71D
:100D6000FDFA002800D0FEE7FFF78EFB7D21C900C9
:100D7000FFF7BEF9FFF788FD0420FFF777FD00229B
:100D80001146501EFFF7E6FA11B030BD1548016854
:100D90000122114301604168134A1140416001681A
:100DA000124A1140016001680122920491430160DE
:100DB00041683F22120491434160C16A0909090157
:100DC000C162016BFF22943291430163016B802267
:100DD00011430163416B490849004163002181606F
:100DE00070470000001002400CB8FF08FFFFF6FE3D
:100DF00010B50248FFF741FE10BD000008000020BA
:100E0000F0B502681A4B1B4C984201D0A04203D1A6
:100E10007025AA434D682A43174D184E184F984223
:100E20000AD0A04208D0174CA04205D0A84203D057
:100E3000B04201D0B84205D11446032212029443B5
:100E4000CA6822438024A2434C69224302608A6814
:100E5000C2620A688262984205D0A84203D0B042BA
:100E600001D0B84201D10969016301214161F0BD9E
:100E7000002C0140000400400040014000440140BB
:100E8000004801400020004030B58468FF252D0255
:100E90001B021343AC430B432343836030BD826882
:100EA00070239A430A4307210A438260704730B592
:100EB000036A046A6408640004628469F025AC4330
:100EC000120122430A24A3430B438261036230BD13
:100ED00030B5036A1024A34303628469036A0F25B3
:100EE0002D031203AC432243A024A3430901194359
:100EF0008261016230BD02E008C8121F08C1002AE9
:100F0000FAD170477047002001E001C1121F002A8A
:100F1000FBD17047FFF7D6F9FFF706FFFFF770FE2A
:100F2000FFF7A8FE0948FFF725FD094C094D0121EF
:100F30002046FFF7A9F9012805D000220421284600
:100F4000FFF7ABF9F3E70122F8E700000800002003
:100F500000080048000400480000000000000000F5
:100F60000102030406070809880F0008000000209A
:100F700008000000F60E0008900F0008080000208E
:100F800040040000060F000800127A000000000074
:04000005080000C12E
:00000001FF
