:020000040800F2
:1000000008040020D50000088F0800088D080008AB
:1000100000000000000000000000000000000000E0
:10002000000000000000000000000000D7080008E9
:100030000000000000000000D5080008D9080008F2
:10004000E700000800000000E7000008E7000008E3
:10005000E7000008E7000008E7000008E7000008E4
:1000600000000000E7000008E7000008E7000008C3
:10007000E7000008E7000008E700000800000000B3
:10008000E7000008E7000008E7000008E7000008B4
:10009000E7000008E7000008E7000008E7000008A4
:1000A000E7000008E7000008E7000008E700000894
:1000B000E7000008E700000800000000E700000873
:1000C0000348854600F02AF800480047C5090008A3
:1000D000080400200448804704480047FEE7FEE784
:1000E000FEE7FEE7FEE7FEE741090008C100000861
:1000F00030B50B46014600202022012409E00D46C0
:10010000D5409D4205D31D469540491B2546954047
:1001100040191546521E002DF1DC30BD064C01255C
:10012000064E05E0E36807CC2B430C3C984710349F
:10013000B442F7D3FFF7C8FF1C0A00083C0A0008C6
:10014000F8B500238DE001249C40A44622407DD0D8
:100150004C68022C01D0122C0CD1DC08A40027180A
:100160003C6A5D07ED0E0F26AE40B4430E69AE400B
:1001700026433E6205685E000324B4400F79A54320
:10018000BF07BF0FB7402F4307604D68012D05D053
:10019000022D03D0112D01D0122D0ED18568CF680C
:1001A000A543B7402F43876047686546AF430D7945
:1001B000ED06ED0F9D403D434560C568A5438C6845
:1001C000B4402C43C4604C68E40049D5284CA56970
:1001D00001263543A561A4699D0834400094254C4F
:1001E000AD002F19BC689D072E0F0F25B540AC43FD
:1001F0000925ED06A84201D100250FE01E4DA842B9
:1002000001D101250AE01D4DA84201D1022505E0DA
:100210001B4DA84201D1032500E00525B54025432B
:10022000BD60184C25684E689543F60300D515430C
:10023000256065684E689543B60300D51543656033
:10024000A5684E689543F60202D500E008E0154324
:10025000A560E5684E689543B60200D51543E56094
:100260005B1C0A681446DC4000D06CE7F8BD000057
:10027000001002400000014000040048000800484F
:10028000000C004800040140002A01D08161704741
:100290008162704701480068704700000400002038
:1002A00002480168491C01607047000004000020FA
:1002B00010B506480168102211430160002000F0CB
:1002C00007F800F017F8002010BD000000200240E1
:1002D00010B5044600F0C4F87D21C900FFF708FFFF
:1002E00000F0B8FA00222146501E00F01FF800204E
:1002F00010BD000008B50C488169012211438161DD
:1003000080691040002200901146501F00F00EF846
:1003100000221146901E00F009F800221146501EDE
:1003200000F004F808BD00000010024010B500F015
:10033000AFFA10BDF8B5054644480E460068C00740
:10034000C00FB0420AD24148016849084900314310
:1003500001600068C007C00FB0425CD128783C4CF7
:10036000800705D56068F0218843A968084360606C
:100370002878C0073FD06868012813D02168022878
:1003800013D08907002946DA61688908890001438A
:100390006160FFF77FFF6968074601290DD00229D8
:1003A00017D024E021688903ECE78901EAE7FFF729
:1003B00071FFC11B2748814217D860680007800F72
:1003C0000128F4D117E0FFF765FFC11B21488142E6
:1003D0000BD860680007800F0228F4D10BE0FFF70C
:1003E00059FFC11B1B48814201D90320F8BD606839
:1003F0000007800FF3D115480168C907C90FB14242
:100400000BD9016849084900314301600068C00701
:10041000C00FB04201D00120F8BD2878400706D5B2
:100420006068072109028843E9680843606000F0BA
:100430001DF86168084A0906090F515CC840074960
:1004400008600020FFF744FF0020F8BD00200240B4
:1004500000100240881300000C0A00080000002071
:1004600001480068704700000000002010B511A38B
:100470000FCB88B06C460FC412A30FCB0FC4154925
:100480004A680C20134603401348042B0FD0082B56
:100490000DD193021B0F6C46E45CC96A04AB0907DB
:1004A000090FD203595C920FFFF722FE604308B098
:1004B00010BD000002030405060708090A0B0C0D15
:1004C0000E0F10100102030405060708090A0B0CA1
:1004D0000D0E0F100010024000127A00FEB5044607
:1004E0000078D24DC00749D068680007800F012806
:1004F00020D068680007800F022804D16868C00314
:10050000800F022816D0012062680004012A18D04A
:100510008100002A01D0052A17D02A6882432A6068
:10052000286888432860606800281BD0FFF7B2FE67
:10053000064613E02868800320D56068002876D03E
:100540001CE0296801432960EDE72A680A432A6014
:10055000F7E7FFF79FFE801B642869D828688003AF
:10056000F7D50BE0FFF796FE064604E0FFF792FE94
:10057000801B6428F1D828688003F7D420780126EE
:10058000800700283DDA68680007800F13D068688C
:100590000007800F022804D16868C003800F01287B
:1005A00009D0E068002828681CD030432860FFF795
:1005B00071FE07460BE0286880070BD5E06801282C
:1005C00035D107E0FFF766FEC01B0228C5D82868B2
:1005D0008007F7D52868F82188432169C9000843B6
:1005E00028600EE0400840002860FFF753FE0746F1
:1005F00004E0FFF74FFEC01B0228AED82868800732
:10060000F7D42078000723D5E0690028686A10D065
:1006100030436862FFF73EFE074604E0FFF73AFE0C
:10062000C01B022899D8686A8007F7D510E0FAE065
:10063000A4E0400840006862FFF72CFE074604E093
:10064000FFF728FEC01B022887D8686A8007F7D406
:10065000207804274007002860DA00200190E8692C
:10066000C00008D4E969B8060143E961E9690140BD
:100670000120009101906E480168C90511D40168FC
:10068000821511430160FFF705FE009005E0FFF7BA
:1006900001FE0099401A642870D865480068C005BA
:1006A000F5D5A06801280AD0002801D0052810D06F
:1006B000286A400840002862286AB84301E0286A96
:1006C00030432862A068002812D0FFF7E3FD0090B5
:1006D0000AE0286A38432862F1E7FFF7DBFD00995A
:1006E000411A5448814249D8286A8007F5D50DE05F
:1006F000FFF7D0FD009006E0FFF7CCFD0099411A0E
:100700004C4881423AD8286A8007F5D401980028DD
:1007100004D0E969012000078143E9612078C0061F
:1007200035D5606901280CD0401D686B23D0384353
:100730006863686B400840006863FFF7ABFD0646DE
:1007400022E0686B38436863686B30436863FFF787
:10075000A1FD064604E0FFF79DFD801B02285BD843
:10076000686B8007F7D5686BF8218843A169C900D9
:10077000084368630BE0B8436863F4E74CE0FFF7B5
:1007800089FD801B022847D8686B8007F7D4206A50
:10079000002846D069680907890F022943D001263D
:1007A00036060228286805D0B0432860FFF772FD9E
:1007B000044633E0B0432860FFF76CFD074604E0D1
:1007C000FFF768FDC01B022826D828688001F7D4EF
:1007D000E86AE16A000900010843E862616AA06A08
:1007E000084369687B22D203914308436860286804
:1007F00030432860FFF74EFD044604E0FFF74AFD52
:10080000001B022808D828688001F7D509E0FFF707
:1008100041FD001B022801D90320FEBD286880018C
:10082000F5D40020FEBD0120FEBD000000100240F6
:10083000007000408813000004220449042808695D
:1008400002D09043086170471043FBE700E000E0EE
:1008500070470000094910B5401E884201D90120A7
:1008600010BD074C60610321081F00F011F8002043
:10087000A06107202061002010BD0000FFFFFF00E5
:1008800000E000E010B5FFF7E3FF10BDFEE77047A2
:100890008307FF22DB0E9A408907090E9940002842
:1008A0000BDA0007000F0838830808489B00181867
:1008B000C36993430B43C3617047830804489B009B
:1008C0001B181868904308431860704700ED00E05B
:1008D00000E400E07047704710B5FFF7E1FCFFF758
:1008E000D1FF10BD10B590B0022000900120039000
:1008F00010200024049008946846FFF7EFFD0028BC
:1009000000D0FEE707200C900D940E9400210F9468
:100910000CA8FFF70FFD002800D0FEE7FFF7A0FDB1
:100920007D21C900FFF7E4FBFFF794FF0420FFF7E8
:1009300083FF00221146501EFFF7F8FC10B010BDD7
:10094000154801680122114301604168134A1140B2
:1009500041600168124A114001600168012292045D
:100960009143016041683F22120491434160C16A92
:1009700009090901C162016BFF22943291430163AD
:10098000016B802211430163416B490849004163B7
:100990000021816070470000001002400CB8FF0881
:1009A000FFFFF6FE02E008C8121F08C1002AFAD1B4
:1009B00070477047002001E001C1121F002AFBD1DF
:1009C0007047000086B0FFF773FCFFF78BFF0D4800
:1009D0004269012189040A43426140690A4C084086
:1009E0000590002210212046FFF74EFC10200090B9
:1009F0000021012002910391019069462046FFF7F2
:100A00009FFBFEE7001002400004004800000000C9
:100A10000000000001020304060708093C0A000860
:100A20000000002008000000A4090008440A000893
:100A30000800002000040000B409000800127A0039
:040A400000000000B2
:04000005080000C12E
:00000001FF
