:020000040800F2
:1000000028050020D5000008B91000084F0F00088F
:1000100000000000000000000000000000000000E0
:100020000000000000000000000000007112000845
:100030000000000000000000011100087312000819
:10004000E700000800000000E7000008E7000008E3
:10005000E7000008E700000841010008E700000889
:1000600000000000E7000008E7000008E7000008C3
:10007000E7000008E7000008E700000800000000B3
:10008000E7000008E7000008E7000008E7000008B4
:10009000E7000008E7000008E7000008E7000008A4
:1000A000E7000008E7000008E7000008E700000894
:1000B000E7000008F916000800000000E70000084B
:1000C0000348854600F02AF8004800472917000831
:1000D000280500200448804704480047FEE7FEE763
:1000E000FEE7FEE7FEE7FEE7E5120008C1000008B4
:1000F00030B50B46014600202022012409E00D46C0
:10010000D5409D4205D31D469540491B2546954047
:1001100040191546521E002DF1DC30BD064C01255C
:10012000064E05E0E36807CC2B430C3C984710349F
:10013000B442F7D3FFF7C8FFB8870008D887000894
:1001400010B5034901200860042000F037F810BD05
:100150001800002070B50024014620314A78022A98
:1001600003D004218163012416E0026813680E2580
:10017000AB431360026813685B085B0013600122E5
:10018000056C1346AB40C56B6B604A7000220A7069
:10019000416B002900D08847204670BD31B500F082
:1001A000C3F8009C0546601C00D0641C00F0BCF83D
:1001B000401BA042FAD338BD7047000010B5044977
:1001C0004A69024202D04861FFF7F6FF10BD000005
:1001D00000040140F8B500238DE001249C40A446B2
:1001E00022407DD04C68022C01D0122C0CD1DC08AE
:1001F000A40027183C6A5D07ED0E0F26AE40B443FD
:100200000E69AE4026433E6205685E000324B4409A
:100210000F79A543BF07BF0FB7402F4307604D6855
:10022000012D05D0022D03D0112D01D0122D0ED19C
:100230008568CF68A543B7402F4387604768654608
:10024000AF430D79ED06ED0F9D403D434560C56818
:10025000A5438C68B4402C43C4604C68E40049D585
:10026000284CA56901263543A561A4699D08344041
:100270000094254CAD002F19BC689D072E0F0F254B
:10028000B540AC430925ED06A84201D100250FE099
:100290001E4DA84201D101250AE01D4DA84201D101
:1002A000022505E01B4DA84201D1032500E00525EC
:1002B000B5402543BD60184C25684E689543F6034C
:1002C00000D51543256065684E689543B60300D593
:1002D00015436560A5684E689543F60202D500E0B7
:1002E00008E01543A560E5684E689543B60200D561
:1002F0001543E5605B1C0A681446DC4000D06CE7DF
:10030000F8BD000000100240000001400004004859
:1003100000080048000C004800040140002A01D0F9
:100320008161704781627047014800687047000032
:100330000000002002480168491C0160704700006D
:100340000000002010B5064801681022114301602A
:10035000002000F007F800F017F8002010BD0000A2
:100360000020024010B5044600F0CEF87D21C900FF
:10037000FFF7BEFE00F00EFC00222146501E00F0EA
:1003800029F8002010BD000008B50C488169012241
:100390001143816180691040002200901146501F76
:1003A00000F018F800221146901E00F013F8002209
:1003B0001146501E00F00EF808BD0000001002406B
:1003C000C106C90E0120884001490860704700003D
:1003D00000E100E010B500F071FE10BDF8B5054673
:1003E00044480E460068C007C00FB0420AD24148D8
:1003F000016849084900314301600068C007C00F27
:10040000B0425CD128783C4C800705D56068F0216B
:100410008843A968084360602878C0073FD06868AF
:10042000012813D02168022813D08907002946DA51
:1004300061688908890001436160FFF775FF696899
:10044000074601290DD0022917D024E0216889032D
:10045000ECE78901EAE7FFF767FFC11B2748814204
:1004600017D860680007800F0128F4D117E0FFF764
:100470005BFFC11B214881420BD860680007800FD9
:100480000228F4D10BE0FFF74FFFC11B1B4881424C
:1004900001D90320F8BD60680007800FF3D115482B
:1004A0000168C907C90FB1420BD901684908490061
:1004B000314301600068C007C00FB04201D0012085
:1004C000F8BD2878400706D56068072109028843EF
:1004D000E9680843606000F02DF86168084A090681
:1004E000090F515CC840074908600020FFF73AFF38
:1004F0000020F8BD002002400010024088130000D8
:10050000701C0008040000200148006870470000CB
:10051000040000200448054900684968044A490568
:10052000490F515CC8407047040000200010024091
:10053000801C000830B514A30FCB89B06C460FC4E3
:1005400015A30FCB0FC418494A680C201446044069
:100550001648042C03D04310082C02D0184609B0CA
:1005600030BD9402240F6D462C5DC96A04AD0907A5
:10057000090FD203695C920F022A00D01846FFF7D8
:10058000B7FD6043EBE70000020304050607080916
:100590000A0B0C0D0E0F10100102030405060708CC
:1005A000090A0B0C0D0E0F10001002400024F4007D
:1005B000FEB504460078D24DC00749D068680007F0
:1005C000800F012820D068680007800F022804D11E
:1005D0006868C003800F022816D0012062680004FA
:1005E000012A18D08100002A01D0052A17D02A68D4
:1005F00082432A60286888432860606800281BD0EE
:10060000FFF792FE064613E02868800320D5606855
:10061000002876D01CE0296801432960EDE72A68AC
:100620000A432A60F7E7FFF77FFE801B642869D83A
:1006300028688003F7D50BE0FFF776FE064604E056
:10064000FFF772FE801B6428F1D828688003F7D476
:1006500020780126800700283DDA68680007800FAF
:1006600013D068680007800F022804D16868C003AF
:10067000800F012809D0E068002828681CD030438A
:100680002860FFF751FE07460BE0286880070BD56E
:10069000E068012835D107E0FFF746FEC01B0228BD
:1006A000C5D828688007F7D52868F82188432169CC
:1006B000C900084328600EE0400840002860FFF7AA
:1006C00033FE074604E0FFF72FFEC01B0228AED81A
:1006D00028688007F7D42078000723D5E069002830
:1006E000686A10D030436862FFF71EFE074604E0D8
:1006F000FFF71AFEC01B022899D8686A8007F7D551
:1007000010E0FAE0A4E0400840006862FFF70CFE49
:10071000074604E0FFF708FEC01B022887D8686A76
:100720008007F7D4207804274007002860DA0020EB
:100730000190E869C00008D4E969B8060143E9619D
:10074000E96901400120009101906E480168C905E6
:1007500011D40168821511430160FFF7E5FD009097
:1007600005E0FFF7E1FD0099401A642870D865485C
:100770000068C005F5D5A06801280AD0002801D07E
:10078000052810D0286A400840002862286AB8432B
:1007900001E0286A30432862A068002812D0FFF7E1
:1007A000C3FD00900AE0286A38432862F1E7FFF7AA
:1007B000BBFD0099411A5448814249D8286A8007F4
:1007C000F5D50DE0FFF7B0FD009006E0FFF7ACFDBA
:1007D0000099411A4C4881423AD8286A8007F5D4DA
:1007E0000198002804D0E969012000078143E961EC
:1007F0002078C00635D5606901280CD0401D686B93
:1008000023D038436863686B400840006863FFF793
:100810008BFD064622E0686B38436863686B3043A3
:100820006863FFF781FD064604E0FFF77DFD801B4E
:1008300002285BD8686B8007F7D5686BF82188437E
:10084000A169C900084368630BE0B8436863F4E733
:100850004CE0FFF769FD801B022847D8686B8007D2
:10086000F7D4206A002846D069680907890F022951
:1008700043D0012636060228286805D0B0432860F8
:10088000FFF752FD044633E0B0432860FFF74CFD0C
:10089000074604E0FFF748FDC01B022826D8286859
:1008A0008001F7D4E86AE16A000900010843E862C0
:1008B000616AA06A084369687B22D20391430843B6
:1008C0006860286830432860FFF72EFD044604E086
:1008D000FFF72AFD001B022808D828688001F7D5F9
:1008E00009E0FFF721FD001B022801D90320FEBD0E
:1008F00028688001F5D40020FEBD0120FEBD000067
:10090000001002400070004088130000F8B5040099
:1009100007D0002625464035A662687F002802D011
:1009200005E00120F8BD2E77204600F04BF80223A9
:100930006B77206801684022914301600721E068DD
:100940000902884201D9002201E0012212030F2787
:100950003F02B84202D0884200D0A662276B002F27
:1009600005D1884201D9236301E001202063A168F9
:100970006068636908432169194308430123A16939
:100980005B0219400843E1690843216A0843A16AF0
:10099000084321680860616B606AA36908431B0C07
:1009A0000427E1683B40194308432168104348602D
:1009B0002068C1697A029143C16126660120687787
:1009C0000020F8BD00B500680D4987B0884215D1F8
:1009D0000C48826981140A4382618069084005904D
:1009E000E02000900220019000210320039002915A
:1009F000049109206946C006FFF7ECFB07B000BD73
:100A00000030014000100240FFB506460446403663
:100A1000307F002781B00D46012809D001203077B2
:100A2000FFF782FC0090707F012804D002279DE030
:100A3000022005B0F0BD002D72D0039800286FD0C1
:100A40000320707700202066A5630399A18703998E
:100A5000E1872064B080F0802065E0640121A06817
:100A6000C903884205D1206801680122920311431D
:100A7000016020680168490603D4016840221143DF
:100A800001600720E16800028142606823D90028E4
:100A900002D0E08F01281AD121682888C86005E0BB
:100AA00020688168890706D52988C160E08F401ECB
:100AB000E087AD1C0BE0049800283ED0401C06D017
:100AC000FFF732FC0099411A0498814235D2E08F39
:100AD0000028E5D136E0002802D0E08F01282ED191
:100AE000E08F012803D921682888C8600CE02168BC
:100AF000287808730FE020688168890711D5E18F95
:100B0000012906D92988C160E08F801EE087AD1CCD
:100B100015E029780173E08F401EE0876D1C0EE020
:100B200023E00498002808D0401C08D0FFF7FCFB05
:100B30000099411A0498814201D3032716E0E08FFF
:100B40000028D8D12046009A049900F0DAFA00284B
:100B500001D020202066A068002803D12068C16849
:100B600080680090206E002800D001270120707757
:100B70000020307738465CE70422044904280869DD
:100B800002D09043086170471043FBE700E000E0AB
:100B900070470000094910B5401E884201D9012064
:100BA00010BD074C60610321081F00F087FA002088
:100BB000A06107202061002010BD0000FFFFFF00A2
:100BC00000E000E010B5FFF7E3FF10BD7047000044
:100BD000F8B503680446D96918680D072D0F07D1C9
:100BE0008A0605D5820603D5204600F041FCF8BDF3
:100BF0009A68002D64D0D507ED0FFF2621360640F8
:100C00002E435DD0CE0706D0C60504D501261E6250
:100C1000E36E3343E3668F0702230426002F06DAD0
:100C2000D70704D027683B62E76E3743E7664F0774
:100C300006D5D20704D022681662E26E1A43E26635
:100C40000A0709D5202202402A4305D0236808223A
:100C50001A62E36E1343E366E26E002AC7D0890688
:100C600004D5800602D5204600F002FCE06E0007A5
:100C700003D42068806840061CD5204600F0DCFBC9
:100C800020688168490611D58168402291438160BE
:100C9000606E00280AD012494163606EFFF75AFA6D
:100CA0000028A4D0606E416B8847F8BD2046FFF74E
:100CB0008DFFF8BD2046FFF789FF0020E066F8BDF4
:100CC0000A0605D5020603D5204600F0B1FCF8BDA2
:100CD0004906FCD54006FAD5204600F0BCFBF8BD1D
:100CE0002514000870B5040005D025466035687AE3
:100CF000002802D006E0012070BD002028722046A6
:100D000000F026F82420687220680168490849002C
:100D10000160204600F0EAFB0128EDD0606A00285F
:100D200002D0204600F010FB206841680122D20268
:100D30009143416020688168082291438160206866
:100D40000168012211430160204600F062FB70BD82
:100D500000B50068114987B088421DD11048C269AA
:100D6000012189040A43C261C0690840059030200E
:100D70000090022001210190032002910491039030
:100D800069460848FFF726FA002211461D20FFF7A2
:100D900021FB1D20FFF714FB07B000BD00480040F9
:100DA0000010024000080048F0B5034660339C7A0A
:100DB000202C44D100290BD0002A09D001258468B9
:100DC0002D03AC4206D10669002E03D1CE0701D017
:100DD0000120F0BD1E7A012E31D001261E72416520
:100DE000014640310A834A83FF27AC4204D102699D
:100DF000002A12D1134A0EE07F22002C08D00125D0
:100E00002D07AC420AD10469002C04D03F2202E035
:100E10000469002C01D08A8300E08F830021C16621
:100E200022229A72197201688A6832438A600068C5
:100E30000168FF222132114301600020F0BD022031
:100E4000F0BD0000FF01000010B500680A498842AB
:100E500010D1012209490A48FFF7A6FF0748084BAD
:100E60008168027870335A54491C81600D2A01D17F
:100E70000121C16010BD00000048004008000020B2
:100E800080000020FFB5064604466036707A83B0C5
:100E90000D46202858D1002D0CD00598002809D0E7
:100EA0000120A1680003814207D12069002804D1F4
:100EB000E80702D0012007B0F0BD307A012843D006
:100EC000012030720020E06621207072FFF72CFABA
:100ED000019027464037059838820598788218E0B7
:100EE000788A401E78820698009000228021204651
:100EF000019B00F0D0FB002818D10120A16800035D
:100F0000814202D12069002812D021682878088502
:100F10006D1C788A0028E3D10698009000224021B9
:100F20002046019B00F0B7FB002808D00320C2E751
:100F300028882168C005C00D0885AD1CE9E7202080
:100F4000707200203072B6E70220B4E77047FEE707
:100F5000F0B5354887B04269012189050A434261ED
:100F600042690A4005924269C9100A4342614269D6
:100F70000A400592426989100A43426142690A4067
:100F80000592426949000A4342614069274E084080
:100F90000590012248213046FFF7C0F90927FF06D6
:100FA000012210213846FFF7B9F900221821204804
:100FB000FFF7B4F948200024012500900294694607
:100FC000019503943046FFF705F910200090029434
:100FD0006946019503943846FFF7FCF80420009019
:100FE00014480190694602951148FFF7F3F8FF2075
:100FF000813000900194694602943046FFF7EAF888
:101000001820009002946946019503940848FFF760
:10101000E1F8002211460620FFF7DCF90620FFF771
:10102000CFF907B0F0BD00000010024000080048F2
:10103000000400480000211010B510480E4901605E
:10104000FF21053141600021072281601202016108
:10105000C260012241615202826101624162082242
:1010600081620723C261C36242630163FFF74EFCE2
:10107000002800D0FEE710BD003001401C00002019
:1010800010B50C480A4901604B21C901416000219B
:101090008160C16001618161C1610C2201624261B4
:1010A0004162FFF71FFE002800D0FEE710BD0000E0
:1010B0000048004080000020704700008307FF22A6
:1010C000DB0E9A408907090E994000280BDA0007C9
:1010D000000F0838830808489B001818C369934319
:1010E0000B43C3617047830804489B001B181868B2
:1010F000904308431860704700ED00E000E400E012
:101100007047F8B50F460B4615460092032104467A
:101110000022C90200F01BF82026002812D13B460D
:10112000002280212046009500F05CF8002809D1BB
:1011300003213B46002249022046009500F007F8B3
:10114000002803D0206E304320660320F8BDF8B598
:101150001D4617460E4604463DE0032149028E42D5
:1011600005D1002F03D1017B684601700078681C0F
:1011700031D0002D05D0FFF7D7F80699401AA842C4
:1011800029D320684168E022914341606068C11F13
:10119000FD390CD10121A068C903884202D0491150
:1011A000884204D1206801684022914301600120F7
:1011B000A16A4003814207D121680A6882430A601C
:1011C00021680A6802430A600120403460770020E9
:1011D00020770320F8BD206881683140B942BCD136
:1011E0000020F8BDF8B51D4617460E46044633E00C
:1011F000681C31D0002D05D0FFF796F80699401AEB
:10120000A84229D320684168E02291434160606888
:10121000C11FFD390CD10121A068C903884202D049
:101220004911884204D1206801684022914301603D
:101230000120A16A4003814207D121680A688243E4
:101240000A6021680A6802430A600120403460771E
:10125000002020770320F8BD20688168304688434D
:1012600004D00020B842C3D10020F8BD0120F9E726
:10127000704710B5FFF75EF8FFF7A4FC10BD30B55E
:1012800091B0012002250190089500900390000480
:101290000990800000240A900B946846FFF788F9B3
:1012A000002800D0FEE707200C900E9401210D9538
:1012B0000F940CA8FFF792F8002800D0FEE7FFF784
:1012C00023F97D21C900FEF713FFFFF763FC04201B
:1012D000FFF752FC00221146501EFFF77BF811B0B9
:1012E00030BD0000154801680122114301604168CA
:1012F000134A114041600168124A114001600168BF
:10130000012292049143016041683F2212049143FB
:101310004160C16A09090901C162016BFF2294326F
:1013200091430163016B802211430163416B4908C2
:1013300049004163002181607047000000100240B5
:101340000CB8FF08FFFFF6FE10B5818CC90707D067
:1013500001684A6801235B049A43836A1A434A601E
:10136000818C890707D501684A6801231B049A43C9
:10137000C36A1A434A60818C490707D501684A68E5
:1013800001239B049A43036B1A434A60818C09072B
:1013900007D501684A680123DB039A43436B1A436C
:1013A0004A60818CC90607D50268916801231B0336
:1013B0009943836B19439160818C890607D5016835
:1013C0008A6801235B039A43C36B1A438A60818C4A
:1013D000490612D503685A6801210905046C8A433D
:1013E00022435A60026C8A4207D102685168032383
:1013F0005B059943436C19435160818C090607D5FD
:1014000001684A680123DB04806C9A4302434A6006
:1014100010BD0021C16620226030427282720172CA
:101420000846704710B5406A0022014640314A83A1
:101430004A82FFF7CBFB10BD01680A68FF23213306
:101440009A430A6001688A68520852008A60202123
:1014500060308172704710B501680A6840239A4372
:101460000A60202269210A54FFF770FD002010BD98
:1014700070B50246403203466033948B9D7A016812
:10148000222D05D08869082210438861022070BD92
:10149000898C012685683603B54202D10569002D85
:1014A0000BD02140446D651C45652170518B491E50
:1014B0000904090C518307D015E0456D21402980AE
:1014C000416D891C4165F1E701680A68FF242134F8
:1014D000A2430A6001688A68520852008A6020218B
:1014E0009972FFF7B1FC002070BD0000F8B504460A
:1014F0002369A268E5691A43636910202B43002120
:1015000025681A432B680E46414F3B4013432B601E
:1015100023685A6803252D03AA43E5682A435A60C5
:10152000236AA26925681A43AB680B273F02BB43B5
:101530001343AB60374A2568954210D1364A126B87
:101540009207920F14D0012A05D0022A05D0032A4F
:101550000FD102200DE004200BE0082009E02F4A03
:10156000954205D02E4A954202D02E4A954200D18E
:1015700000200122E369D203934224D100280CD039
:1015800002280DD0042813D0082817D001260A09F4
:1015900012010807400F10432FE0FEF7BBFF09E0E0
:1015A0006168214A48088018FEF7A2FD81B2EEE783
:1015B000FEF7C0FF616840004A08F4E76168012255
:1015C00048081204EFE7002808D0022809D00428B0
:1015D0000BD0082814D001263046F8BDFEF79AFF3C
:1015E00005E06168114A48080CE0FEF7A3FF616856
:1015F0004A088018FEF77CFD80B22168C860EBE7DE
:10160000616848088018FEF773FD80B2E860E3E780
:10161000F369FFEF00380140001002400044004031
:1016200000480040004C00400024F40000127A0002
:101630006921095C212901D002207047024640320D
:10164000518A002912D0012381681B03994202D1DB
:101650000169002915D0C16C4B1CC364006809786E
:101660000185508A401E50820020704701680A6838
:1016700080239A430A600068016840221143016098
:10168000F2E7C16C03680988C905C90D1985C16CE9
:10169000891CC164E5E7FFB581B017460E460446D4
:1016A0000A9D1DE0681C1BD0002D05D0FEF73CFEF6
:1016B0000499401AA84213D920680168FF22A13278
:1016C00091430160206881684908490081602020B9
:1016D00060346072A07200202072032005B0F0BD5B
:1016E0002068C1693046884304D00020B842D9D070
:1016F0000020F3E70120F9E710B50248FFF768FA88
:1017000010BD00008000002002E008C8121F08C1C0
:10171000002AFAD170477047002001E001C1121F72
:10172000002AFBD170470000FEF70CFEFFF7A7FD73
:10173000FFF70EFCFFF780FCFFF7A2FC00F0ACF80F
:1017400001221E491E48FFF72FFB1F261B4CF602E5
:101750000A21A68001231BA2084600F023FA1B4F92
:1017600000252069012810D10A23092218A1144854
:10177000FFF788FB384600F052F83221A68001239B
:1017800016A2084600F00EFA2561E0680128E8D1AB
:10179000384600F044F80A4A012370320A214620F4
:1017A00000F000FA2089064982B20A237031044809
:1017B000FFF768FBE560A560D3E7000008000020A4
:1017C0008000002053686976616D0000FFFF000013
:1017D00050415241534841520D0A0000506172611C
:1017E0007368617200000000F8B504461D46164695
:1017F0000F462A2000F028FA204600F0FBF9304678
:1018000000F0F8F92B2000F01FFA384600F0F2F94A
:10181000284600F0EFF92C2000F016FAF8BDF8B5D4
:10182000010AC7B20091092000221021C006FEF76C
:1018300075FD0120FEF7B2FCFF2300214033EF22AB
:101840000846FFF7D1FF0025FF2641360024009807
:1018500000F0E6F9384600F0E3F9641CA4B2B442A3
:10186000F5D36D1CADB2F02DF0D30920012210216B
:10187000C006FEF753FD0120FEF790FCF8BD000006
:1018800010B50B460246FFF7AFFF0248808800F014
:10189000B1F910BD0800002070B50122994D540324
:1018A00021462846FEF73AFD0520FEF777FC002288
:1018B00021462846FEF732FD0520FEF76FFC012287
:1018C00021462846FEF72AFD0924E40600221021BD
:1018D0002046FEF723FD0120FEF760FC3420C043C4
:1018E00000F0B2F9392000F09BF92C2000F098F9B3
:1018F000002000F095F9342000F092F9022000F069
:101900008FF93020C04300F09FF9002000F088F9E3
:10191000C12000F085F9302000F082F91720C04383
:1019200000F092F9852000F07BF9002000F078F9B2
:10193000782000F075F91520C04300F085F90020EB
:1019400000F06EF9002000F06BF91220C04300F0A7
:101950007BF9642000F064F9032000F061F91220A3
:1019600000F05EF9812000F05BF90820C04300F030
:101970006BF9202000F054F93F20C04300F064F9D7
:10198000232000F04DF93E20C04300F05DF9102007
:1019900000F046F93A20C04300F056F93E2000F02E
:1019A0003FF9282000F03CF93820C04300F04CF902
:1019B000862000F035F9362000F046F9482000F086
:1019C0002FF93A2000F040F9552000F029F94E2077
:1019D000C04300F039F9002000F022F9182000F08F
:1019E0001FF94920C04300F02FF9082000F018F932
:1019F000822000F015F9272000F012F90D20C043D5
:101A000000F022F9002000F00BF9262000F01CF96C
:101A1000012000F005F91F20C04300F015F90F2048
:101A200000F0FEF8312000F0FBF82B2000F0F8F871
:101A30000C2000F0F5F80E2000F0F2F8082000F07D
:101A4000EFF84E2000F0ECF8F12000F0E9F8372034
:101A500000F0E6F8072000F0E3F8102000F0E0F8CE
:101A6000032000F0DDF80E2000F0DAF8092000F085
:101A7000D7F8002000F0D4F81E20C04300F0E4F8AE
:101A8000002000F0CDF80E2000F0CAF8142000F07D
:101A9000C7F8032000F0C4F8112000F0C1F80720B7
:101AA00000F0BEF8312000F0BBF8C12000F0B8F81B
:101AB000482000F0B5F8082000F0B2F80F2000F040
:101AC000AFF80C2000F0ACF8312000F0A9F8362077
:101AD00000F0A6F80F2000F0A3F8112000F0B4F8F1
:101AE0007820FEF75BFB292000F0AEF82C2000F0F8
:101AF000ABF8012210212046FEF710FC0120FEF772
:101B00004DFB70BD00080048FFB581B0FF21019872
:101B100029311446884236D80298E22833D8173043
:101B200083B2019802990D3082B20198FFF75CFEF2
:101B300000272A20203C444300940026002501244D
:101B4000B4406900009869184018C1191348405CF6
:101B50000499002919D0044209D0F800811902988B
:101B6000081881B20198401980B2FFF789FE6D1CF8
:101B7000EDB20E2DE5D3761CF6B2082EDED37F1C17
:101B8000FFB2032FD9D305B0F0BD0442044801D001
:101B9000808800E0408800F02DF8E8E7783D0008F4
:101BA00008000020FFB5092716460D460024FF0651
:101BB00081B0224610213846FEF7B0FB0120FEF727
:101BC000EDFA09E0C2B22846049B0199FFF79CFF99
:101BD0000E35641CADB2E4B2305D0028F2D10122B2
:101BE00010213846FEF79AFB0120FEF7D7FA05B020
:101BF000F0BD000008B5020A69460A70487001226B
:101C000040210548FEF78AFBFF23F533022269468F
:101C10000248FEF7F9FE08BD000800481C0000203D
:101C200008B569460870012240210548FEF776FB99
:101C3000FF23F533012269460248FEF7E5FE08BDA1
:101C4000000800481C00002008B569460870002202
:101C500040210548FEF762FBFF23F5330122694668
:101C60000248FEF7D1FE08BD000800481C00002015
:101C7000000000000000000001020304060708093C
:101C8000000000000102030400000000000000004A
:101C9000000000000000000000000008080808081C
:101CA000080800001818000000486C24120000000A
:101CB00000000000000000000000002424247F1227
:101CC00012127F12121200000000081C2A2A0A0CAD
:101CD0001828282A2A1C0808000000222515151596
:101CE0002A585454542200000000000C1212120A08
:101CF00076252911916E00000006060403000000FD
:101D0000000000000000000000402010100808083B
:101D100008080810102040000002040808101010E5
:101D200010101008080402000000000008086B1CD6
:101D30001C6B0808000000000000000008080808EC
:101D40007F080808080000000000000000000000F4
:101D50000000000006060403000000000000000070
:101D6000FE00000000000000000000000000000075
:101D70000000000006060000000080404020201007
:101D80001008080404020200000000182442424225
:101D90004242424224180000000000080E080808D1
:101DA00008080808083E00000000003C42424220AB
:101DB00020100804427E00000000003C424220182F
:101DC00020404042221C0000000000203028242433
:101DD00022227E20207800000000007E0202021AEB
:101DE00026404042221C0000000000382402021A53
:101DF00026424242241800000000007E22221010D9
:101E000008080808080800000000003C424242247C
:101E100018244242423C0000000000182442424282
:101E200064584040241C0000000000000000181806
:101E3000000000001818000000000000000000086A
:101E40000000000000080804000000402010080402
:101E500002040810204000000000000000007F0085
:101E600000007F00000000000000000204081020B5
:101E700040201008040200000000003C424246409E
:101E800020101000181800000000001C225A5555A0
:101E900055552D42221C000000000008081814149B
:101EA000243C224242E700000000001F2222221EA2
:101EB00022424242221F00000000007C42420101F7
:101EC00001010142221C00000000001F2242424288
:101ED00042424242221F00000000003F4212121EF6
:101EE00012120242423F00000000003F4212121E46
:101EF00012120202020700000000003C222201012F
:101F000001712122221C0000000000E742424242EF
:101F10007E42424242E700000000003E08080808F6
:101F200008080808083E00000000007C101010108F
:101F3000101010101010110F0000007722120A0E5E
:101F40000A12122222770000000000070202020299
:101F500002020202427F0000000000773636363669
:101F60002A2A2A2A2A6B0000000000E346464A4A31
:101F700052525262624700000000001C224141415F
:101F800041414141221C00000000003F42424242C8
:101F90003E020202020700000000001C22414141F3
:101FA00041414D53321C60000000003F4242423E1E
:101FB0001212222242C700000000007C42420204AA
:101FC00018204042423E00000000007F49080808F7
:101FD00008080808081C0000000000E742424242CE
:101FE00042424242423C0000000000E742422224BA
:101FF00024141418080800000000006B49494949DE
:102000005555362222220000000000E74224241801
:102010001818242442E7000000000077222214143C
:1020200008080808081C00000000007E212010108D
:1020300008040442423F0000007808080808080825
:1020400008080808080878000000020204040808CC
:102050000810102020204040001E101010101010FA
:102060001010101010101E00003844000000000076
:102070000000000000000000000000000000000060
:1020800000000000000000FF000608000000000043
:102090000000000000000000000000000000003C04
:1020A0004278444242FC0000000000030202021A8F
:1020B00026424242261A00000000000000000038BC
:1020C00044020202443800000000006040404078B2
:1020D0004442424264D80000000000000000003C7E
:1020E000427E0202423C0000000000F08808087EA8
:1020F00008080808083E0000000000000000007CFE
:1021000022221C023C42423C000000030202023A2E
:102110004642424242E700000000000C0C00000E64
:1021200008080808083E00000000003030000038B1
:10213000202020202020221E000000030202027224
:10214000120A1612227700000000000E0808080884
:1021500008080808083E0000000000000000007F9A
:102160009292929292B70000000000000000003BA3
:102170004642424242E70000000000000000003CEE
:1021800042424242423C0000000000000000001BAE
:1021900026424242221E0207000000000000007892
:1021A00044424242447840E00000000000000077D2
:1021B0004C040404041F0000000000000000007C28
:1021C00042023C40423E0000000000000008083E81
:1021D0000808080808300000000000000000006344
:1021E0004242424262DC000000000000000000E7C2
:1021F000422424140808000000000000000000EB46
:1022000049495555222200000000000000000076D8
:1022100024181818246E000000000000000000E7D9
:102220004224241418080807000000000000007E63
:1022300022100808447E000000C02020202020102A
:10224000202020202020C00010101010101010108E
:1022500010101010101010100006080808080810C0
:1022600008080808080806000C32C2000000000038
:10227000000000000000000000000000000000005E
:10228000000000000000000000000000000000004E
:10229000000000000000000000000000000000003E
:1022A000000000000000000000000000000000002E
:1022B000000000000000000000000000000000001E
:1022C000000000000000000000000000000000000E
:1022D000000000000000000000000000F8FFCF0137
:1022E000F8FFCF01F8FFCF01000000000000000060
:1022F00000000000000000000000000000000000DE
:1023000000000000000000000000000000000000CD
:102310000000000000000000F8070000F8070000BF
:10232000F8070000F80700000000000000000000AF
:1023300000000000F8070000F8070000F8070000A0
:10234000F80700000000000000000000000000008E
:102350000000000000000C00000C0C00000C0C0041
:10236000000CCC0100CCFF0180FF7F00E07F0C005F
:10237000E00C0C00000C0C00000CCC0100CCFF01A8
:1023800080FF7F00E07F0C00E00C0C00000C0C00D4
:10239000000C0C00000C0000000000000000000019
:1023A000001E8001803F8001C07F0003C0710003D8
:1023B000E0E0003F60E0F83F60F0FF07F0FF3F0320
:1023C000FEFF01037E8083036080C7016000FF0180
:1023D000C000FE0000007C000000000000000000C3
:1023E00000000000C0030000F00F0008F81F000EFE
:1023F0003C3C80071C38E0013C3C7800F81F1E0084
:10240000F08F0700C0E3F1000078FC03001EFE0718
:1024100080070F0FE001070E78000F0F1C00FE076A
:102420000400FC010000F0000000000000007C003F
:102430000000FF00C087FF01E0DFC301F0FF810360
:1024400038FC000318F0010318F0030318B8070361
:10245000383C0F03F01F9E01F00FFC01C003F00099
:102460000000FF010080FF0300008703000000035D
:10247000000000000000000000000000000000005C
:10248000000000000000000000000000F80700004D
:10249000F8070000F8070000F8070000000000003F
:1024A000000000000000000000000000000000002C
:1024B000000000000000000000000000000000001C
:1024C00000000000000000000000000000E01F000D
:1024D00000FCFF0100FFFF07801FE01FE003003F3B
:1024E000F000007C780000F81C0000E00C0000C048
:1024F0000400008000000000000000000000000058
:102500000000000000000000000000000400008047
:102510000C0000C01C0000E0780000F0F000007C1F
:10252000E003003FC01FE00F00FFFF0700FCFF01BA
:1025300000E01F000000000000000000000000009C
:10254000000000000000000000000000000000008B
:102550000000000040100000E0380000C01800003B
:10256000800D0000800F0000F8FF0100F8FF01005F
:10257000800F0000800D0000C0180000E03800004F
:1025800040100000000000000000000000000000FB
:102590000000000000000000000003000000030035
:1025A000000003000000030000000300000003001F
:1025B00000FEFF0100FEFF01000003000000030019
:1025C00000000300000003000000030000000300FF
:1025D00000000000000000000000000000000000FB
:1025E0000000000000000000000000C0000000C06B
:1025F000000000C00000C0600000E07B0000E03F81
:102600000000E01F0000800F00000000000000003C
:1026100000000000000000000000000000000000BA
:1026200000000000000000000000000000000000AA
:102630000000060000000600000006000000060082
:102640000000060000000600000006000000060072
:10265000000006000000060000000000000000006E
:10266000000000000000000000000000000000006A
:10267000000000000000000000000000000000005A
:102680000000C0010000E0030000E0030000E003E0
:102690000000C00100000000000000000000000079
:1026A000000000000000000000000000000000002A
:1026B0000000000000000000000000300000003CAE
:1026C0000000000F0000C0030000F00000003C000C
:1026D00000000F0000C0030000F00000003C0000FC
:1026E000000F0000C0030000F00000003C000000EC
:1026F0000C000000000000000000000000F80F00C7
:1027000000FE7F0080FFFF00C007FC01C001C60182
:10271000E00083036080030360C0010360E0000306
:10272000E0608003C031C001C01FF00180FFFF00E6
:1027300000FF3F0000F80F00000000000000000054
:10274000000000000000000000020000000700037D
:1027500080030003C0010003E000000360000003E9
:10276000E0FFFF03E0FFFF03E0FFFF0300000003C3
:10277000000000030000000300000003000000034D
:102780000000000000000000000000000000000049
:1027900080000003C0018003C000C003E000E0032C
:1027A0006000F80360007C0360003E0360001F03CC
:1027B000E0800703C0C10303C0FF010380FF0003E3
:1027C000003E0003000000030000000000000000C5
:1027D00000000000000000000000000000000003F6
:1027E000C00000036000000360C0000360C000037D
:1027F00060C0000360C0000360E08003E0F081017E
:10280000C0BFC301C0BFFF00000F7F0000003E003B
:1028100000000000000000000000000000001C009C
:1028200000001E0000801F0000E01B0000F01800E8
:10283000007C1800001E1800800F1800C00318004C
:10284000E0001800E0FFFF03E0FFFF03E0FFFF03ED
:102850000000180000001800000018000000180018
:10286000000000000000000000000000E07F000306
:10287000E07F0003E07F000360600003606000030E
:1028800060600003606000036060800360E08001BE
:1028900060C0E10160C0FF0060807F0000001F0099
:1028A0000000000000000000000000000000000028
:1028B00000F01F0000FC7F0000FFFF0080C7E00168
:1028C00080638003C0610003C06000036060000398
:1028D000606000036060000360E0800160C0C101CF
:1028E00060C0FF0000807F0000003F00000000008B
:1028F0000000000000000000600000006000000018
:1029000060000002600080036000E0036000F803E4
:1029100060007E0060801F0060E0070060FC010036
:10292000607F0000E00F0000E0030000E000000016
:102930000000000000000000000000000000000097
:10294000000F7C00801FFE00C03FFF01C0F0870128
:1029500060E0830360E0010360C0000360C0000327
:1029600060E0010360E08303E0F08701C03FFF0106
:10297000C01FFE00000F7C000000000000000000EF
:102980000000000000000000007E000000FF0003C7
:1029900080FF0103C0C10103C08003036000030383
:1029A0006000030360008301600083016000C301D5
:1029B000E000E300C083F90080FF7F0000FF1F00FC
:1029C00000FC070000000000000000000000000004
:1029D00000000000000000000000000000000000F7
:1029E000000000000038C001007CE003007CE00330
:1029F000007CE0030038C00100000000000000007F
:102A000000000000000000000000000000000000C6
:102A100000000000000000000000000000000000B6
:102A2000000000C0000000C0000000C00038C0600E
:102A3000007CE07B007CE03F007CE01F0038800FE2
:102A40000000000000000000000000000000000086
:102A50000000000000000000000000000000000076
:102A600000000000000003000080070000C00F000D
:102A700000E01F0000E01C0000703800003870000B
:102A8000001CE000001EE001000EC00100078003F2
:102A90000002000100000000000000000000000033
:102AA000000000000000000000C0180000C0180076
:102AB00000C0180000C0180000C0180000C01800B6
:102AC00000C0180000C0180000C0180000C01800A6
:102AD00000C0180000C0180000C0180000C0180096
:102AE00000000000000000000000000000000000E6
:102AF000000000000002000100078003000EC0017A
:102B0000001EE001001CE00000387000007038007A
:102B100000E01C0000E01F0000C00F000080070064
:102B200000000300000000000000000000000000A2
:102B30000000000000000000000000000000000095
:102B400000000000180000001800800118E0CF030A
:102B500018E0CF0330E08F0170600000F0700000DB
:102B6000E03F0000C03F0000000F00000000000038
:102B7000000000000000000000F8FF0100FEFF0759
:102B8000801F001FE001003C70C01F7838F07F708C
:102B90000CFC7F600E3C6060060E606006063C60C8
:102BA00006FE3F6006FE7F600C3E60301C00603811
:102BB000F8003818F0FF1F0080FF0300000000003D
:102BC000000080030000F0030000FE0300C07F004F
:102BD00000F81F0000FF1800E01F1800E0031800B5
:102BE000E0001800E0031800E01F180000FF1900C3
:102BF00000F81F0000C07F000000FE030000F0038B
:102C00000000800300000000000000000000000041
:102C100000000000E0FFFF03E0FFFF03E0FFFF0311
:102C200060C0000360C0000360C0000360C0000318
:102C300060C00003E0E00003E0F08101C0BFC30119
:102C4000C0BFFF00000FFF0000003E0000000000BA
:102C50000000000000F00F0000FE3F0000FF7F00BA
:102C6000800FF800C003C001C0018001E0008003B4
:102C700060000003600000036000000360000003C8
:102C8000600000036000000360008001C00080015C
:102C90000000000000000000000000000000000034
:102CA000E0FFFF03E0FFFF03E0FFFF03600000031E
:102CB0006000000360000003600000036000000388
:102CC000E0008001C0008001C001C0018007F80061
:102CD00080FF7F0000FE3F0000F8070000000000BA
:102CE000000000000000000000000000E0FFFF0303
:102CF000E0FFFF03E0FFFF0360C0000360C00003CC
:102D000060C0000360C0000360C0000360C0000337
:102D100060C0000360C0000360C00003000000004A
:102D200000000000000000000000000000000000A3
:102D300000000000E0FFFF03E0FFFF03E0FFFF03F0
:102D400060800100608001006080010060800100FF
:102D500060800100608001006080010060800100EF
:102D60006080010000000000000000000000000082
:102D70000000000000F00F0000FC3F0000FF7F009B
:102D8000800FF000C003C001C0018001E00080039B
:102D90006000000360800103608001036080010324
:102DA000608001036080FF036080FF01C080FF013D
:102DB0000000000000000000000000000000000013
:102DC000E0FFFF03E0FFFF03E0FFFF0300C00000A0
:102DD00000C0000000C0000000C0000000C00000F3
:102DE00000C0000000C0000000C00000E0FFFF03C2
:102DF000E0FFFF03E0FFFF03000000000000000011
:102E0000000000000000000000000000600000035F
:102E10006000000360000003600000036000000326
:102E2000E0FFFF03E0FFFF03E0FFFF03600000039C
:102E30006000000360000003600000036000000306
:102E40000000000000000000000000000000000082
:102E5000000000006000C00060008001600000030E
:102E60006000000360000003600000036000800356
:102E70006000C001E0FFFF01E0FFFF00E0FF3F0056
:102E80000000000000000000000000000000000042
:102E9000000000000000000000000000E0FFFF0351
:102EA000E0FFFF03E0FFFF030080000000E00300FD
:102EB00000F00700003C1F00001E3C00800FF800DF
:102EC000C003F001E001C003E00080032000000324
:102ED00000000000000000000000000000000000F2
:102EE0000000000000000000E0FFFF03E0FFFF0320
:102EF000E0FFFF03000000030000000300000003E8
:102F000000000003000000030000000300000003B5
:102F100000000003000000030000000000000000AB
:102F200000000000E0FFFF03E0FFFF03E0FFFF03FE
:102F3000E0010000E0070000800F0000003E0000FC
:102F40000078000000F0000000780000003E000063
:102F5000800F0000E0070000E0010000E0FFFF0339
:102F6000E0FFFF03E0FFFF0300000000000000009F
:102F7000E0FFFF03E0FFFF03E0FFFF03E0030000CB
:102F8000800F0000007E000000F8010000C00F006C
:102F900000003F000000F8000000E003E0FFFF0336
:102FA000E0FFFF03E0FFFF0300000000000000005F
:102FB0000000000000F80F0000FE7F0080FFFF000F
:102FC0008007F001C001C001E00080036000000341
:102FD000600000036000000360000003E000800365
:102FE000C001C001C007F00080FFFF0000FF3F00EC
:102FF00000F80F00000000000000000000000000CA
:1030000000000000E0FFFF03E0FFFF03E0FFFF031D
:103010006000030060000300600003006000030024
:103020006000030060000300E0800100C0C10100F7
:10303000C0FF0000807F0000003E00000000000094
:103040000000000000F00F0000FE7F0080FFFF0086
:103050008007F001C001C001E000800360000003B0
:103060006000000F6000003F6000007FE00080F320
:10307000C001C0E1C007F0C180FFFFC000FF3FC03A
:1030800000F80FE000000040000000000000000019
:1030900000000000E0FFFF03E0FFFF03E0FFFF038D
:1030A00060C0000060C0000060C0000060C001009F
:1030B00060C00300E0E00700C0701F00C07F7C001C
:1030C000803FF001000FE0030000800300000002D9
:1030D0000000000000000000001F8001803F800110
:1030E000C07F0003C0710003E0E0000360E0000364
:1030F00060C0010360C0010360C0010360808303FE
:103100006080C701C000FF01C000FE0000007C001D
:1031100000000000000000000000000000000000AF
:10312000600000006000000060000000600000001F
:103130006000000060000000E0FFFF03E0FFFF030D
:10314000E0FFFF036000000060000000600000007E
:10315000600000006000000060000000000000004F
:103160000000000000000000E0FF3F00E0FFFF0063
:10317000E0FFFF010000C001000080030000000329
:103180000000000300000003000000030000000333
:10319000000080030000C001E0FFFF00E0FF7F00AF
:1031A000E0FF3F000000000000000000E000000021
:1031B000E0070000E03F000080FF010000F80F0082
:1031C00000C07F000000FE010000F003000080034B
:1031D0000000F0030000FE0100C03F0000F80F00F7
:1031E00000FF0100E03F0000E0070000E0000000F9
:1031F00000000000E0FF0300E0FF7F000080FF030D
:103200000000E0030000F8030000FE0000801F0043
:1032100000E0070000E0070000801F000000FE0043
:103220000000F0030000C0030080FF03E0FF3F0048
:10323000E0FF030000000000000000022000000387
:103240006000C003E001E003E003F801800F7C00B0
:10325000003F1F0000FC0F0000F8030000F803000F
:1032600000FC0F00003F1F00800F7E00E003F8010C
:10327000E001E0036000C003200000030000000242
:103280002000000060000000E0010000C007000016
:10329000800F0000003E000000FC000000F0010074
:1032A00000C0FF030080FF0300C0FF0300F0010027
:1032B00000F80000003E0000800F0000C007000082
:1032C000E0010000600000000000000000000000BD
:1032D000600000036000C0036000E0036000F803CA
:1032E00060003E0360001F0360C0070360F001033D
:1032F00060FC0003603E0003E00F0003E0030003F6
:10330000E001000360000003000000000000000076
:1033100000000000000000000000000000000000AD
:1033200000000000FEFFFF7FFEFFFF7FFEFFFF7F2C
:1033300006000060060000600600006006000060F5
:103340000600006000000000000000000000000017
:10335000000000000000000000000000000000006D
:103360000C0000003C000000F0000000C003000062
:10337000000F0000003C000000F0000000C003004F
:1033800000000F0000003C000000F0000000C0033F
:103390000000000F0000003C0000003000000000B2
:1033A000000000000000000000000000000000001D
:1033B00000000000060000600600006006000060DB
:1033C0000600006006000060FEFFFF7FFEFFFF7F3B
:1033D000FEFFFF7F00000000000000000000000072
:1033E00000000000000000000000000000000000DD
:1033F0000060000000700000007C0000001F000062
:1034000080070000E001000060000000E001000013
:10341000C0070000001F0000007C000000700000DA
:10342000006000000000000000000000000000003C
:10343000000000E0000000E0000000E0000000E00C
:10344000000000E0000000E0000000E0000000E0FC
:10345000000000E0000000E0000000E0000000E0EC
:10346000000000E0000000E0000000E0000000E0DC
:10347000000000E0000000E000000000000000008C
:10348000000000000000000008000000180000001C
:103490003800000078000000F0000000E0000000AC
:1034A000C0000000800000000000000000000000DC
:1034B000000000000000000000000000000000000C
:1034C00000000000000000000000F0000018F801FB
:1034D0000018FC01000C8C03000C0603000C060312
:1034E000000C0603000C0603000C8601001C86017C
:1034F000003CC60000F8FF0300F0FF0300E0FF03FC
:1035000000000000000000000000000000000000BB
:1035100000000000F8FFFF01F8FFFF01F8FFFF03C4
:10352000007080030038000300180003000C000343
:10353000000C0003000C8003001C8001003CE00133
:1035400000F8FF0000F07F0000C01F000000000036
:1035500000000000000000000000000000801F00CC
:1035600000E07F0000F0FF000078E00100388001FB
:10357000001C8003000C0003000C0003000C00037F
:10358000000C0003000C0003000C00030018800175
:10359000000000000000000000000000000000002B
:1035A00000803F0000E0FF0000F0FF010078C00352
:1035B00000188003001C0003000C0003000C000333
:1035C000000C8001000CC001000CE000F8FFFF03BC
:1035D000F8FFFF03F8FFFF030000000000000000F9
:1035E000000000000000000000803F0000E0FF003D
:1035F00000F0FF010078C601001C8603000C0603E2
:10360000000C0603000C0603000C0603001C060356
:103610000038060300F8070100F0870100C007002A
:10362000000000000000000000000000003000006A
:1036300000300000003000000030000000300000CA
:10364000C0FFFF03E0FFFF03F0FFFF037030000047
:10365000383000001830000018300000180000005A
:10366000000000000000000000000000000000005A
:1036700000000000000000000000001E00F83C3FB9
:1036800000FCFF7F00FEFF71008EE3600007C76053
:103690000003C6600003C6600003C6600007C76081
:1036A000008FC37000FFC37100FFC13F00FB801F8C
:1036B0000003000F000300000000000000000000F5
:1036C00000000000F8FFFF03F8FFFF03F8FFFF030F
:1036D000007000000038000000180000000C00001E
:1036E000000C0000000C0000001C000000F8FF03AC
:1036F00000F8FF0300E0FF030000000000000000EE
:1037000000000000000000000000000000000003B6
:10371000000C0003000C0003000C0003600C00030D
:10372000F0FCFF03F0FCFF03F0FCFF03600000036C
:10373000000000030000000300000003000000037D
:103740000000000000000000000000000000000079
:103750000000003000030060000300600003006010
:1037600000030060000300600003006000030070BD
:10377000180300783CFFFF3F3CFFFF1F3CFFFF07A3
:103780001800000000000000000000000000000021
:10379000000000000000000000000000F8FFFF0330
:1037A000F8FFFF03F8FFFF0300000200000007001E
:1037B00000800F0000C03D0000E078000070F000C5
:1037C0000038E001001CC003000C8003000400036B
:1037D00000000002000000000000000000000000E7
:1037E00000000000000000031800000318000003A0
:1037F0001800000318000003F8FFFF03F8FFFF03A1
:10380000F8FFFF03000000030000000300000003B6
:1038100000000003000000030000000000000000A2
:10382000000000000000000000FCFF0300FCFF039C
:1038300000FCFF0300380000000C0000000C00003A
:1038400000FCFF0300FCFF0300F0FF030038000052
:10385000000C0000000C000000FCFF0300FCFF0354
:1038600000F0FF0300000000000000000000000066
:103870000000000000FCFF0300FCFF0300FCFF034E
:10388000007000000038000000180000000C00006C
:10389000000C0000000C0000001C000000FCFF03F6
:1038A00000F8FF0300E0FF0300000000000000003C
:1038B0000000000000801F0000E07F0000F0FF001B
:1038C0000078E00100188003000C0003000C0003E6
:1038D000000C0003000C0003000C0003001C80011E
:1038E0000078E00100F0FF0000E07F0000C01F0052
:1038F00000000000000000000000000000000000C8
:103900000000000000FCFFFF00FCFFFF00FCFFFFC9
:10391000007080030038000300180003000C00034F
:10392000000C0003000C8003001C8001003CE0013F
:1039300000F8FF0000F07F0000C01F000000000042
:10394000000000000000000000803F0000E0FF00D9
:1039500000F0FF010078C00300188003001C000382
:10396000000C0003000C0003000C8001000CC001DF
:10397000000CE00000F8FFFF00FCFFFF00FCFFFF71
:103980000000000000000000000000000000000037
:103990000000000000FCFF0300FCFF0300FCFF032D
:1039A000007000000038000000180000000C00004B
:1039B000000C0000000C0000001C000000FC0000D7
:1039C00000F8000000E0000000000000000000001F
:1039D00000000000000000000000000000E0800186
:1039E00000F0810100F80303009C0303000C0703AF
:1039F000000C0703000C0603000C0E03000C0E0362
:103A0000000C9C01001CFC010018F8000000700074
:103A1000000000000000000000000000000C00009A
:103A2000000C0000000C0000000C0000000C000066
:103A3000C0FFFF00E0FFFF01E0FFFF01000C80037B
:103A4000000C0003000C0003000C0003000C00033A
:103A5000000C0003000C80010000000000000000CA
:103A600000000000000000000000000000FC7F00DB
:103A700000FCFF0100FCFF030000800300000003C6
:103A80000000000300000003000080010000C001EE
:103A90000000E00000FCFF0300FCFF0300FCFF034C
:103AA0000000000000000000000000000000000016
:103AB000001C0000007C000000FC030000F00F0070
:103AC00000807F000000FC010000E0030000C00354
:103AD0000000E0030000FC0100807F0000F00F0008
:103AE00000FC0300007C0000001C0000000000003F
:103AF0000000000000FC0F0000FCFF010080FF033D
:103B0000000080030000E0030000F80100003E0018
:103B100000800F0000800F0000003E000000F80150
:103B20000000E003000080030080FF0300FCFF01B1
:103B300000FC0F0000000000000000000004000274
:103B4000000C0003001C8003007CC00300F8F0019F
:103B500000E0790000C03F0000801F0000801F00CF
:103B600000C03F0000E0790000F8F001007CE003B5
:103B7000001C8003000C0003000400020000000091
:103B8000000000000000006000070060001F0060EF
:103B900000FF006000FC037000E01F3800007F1E83
:103BA0000000F80F0000E0070000FC0100007F00AB
:103BB00000E00F0000FC0300007F0000001F000079
:103BC00000030000000000000000000000000000F2
:103BD00000000000000C0003000C8003000CC00378
:103BE000000CF003000C7803000C1C03000C0F0306
:103BF000008C070300CC010300FC0003007C0003E1
:103C0000001C0003000C0003000000030000000083
:103C1000000000000000000000C0000000C0000024
:103C200000C0000000C0000000E00100F0FFFF0F36
:103C3000FC3FFF3FFC1FFE3F0E00007006000060CF
:103C400006000060060000600000000000000000A8
:103C50000000000000000000000000000000000064
:103C60000000000000000000000000000000000054
:103C70000000000000000000FFFFFFFFFFFFFFFF4C
:103C8000FFFFFFFF00000000000000000000000038
:103C90000000000000000000000000000000000024
:103CA0000000000000000000000000000000000014
:103CB0000600006006000060060000600E00007054
:103CC000FC1FFE3FFC3FFF3FF0FFFF0F00E0010045
:103CD00000C0000000C0000000C0000000C00000E4
:103CE00000000000000000000000000000000E00C6
:103CF00000800F0000C00F0000C0010000C00000E5
:103D000000C0000000800100000003000000060069
:103D100000000C00000018000000180000001C004B
:103D200000801F0000800F000080030000000000E2
:103D300000000000FCFFFF07FCFFFF070C0000066F
:103D40000C0000060C0000060C000006FCFFFF073C
:103D5000FCFFFF0700000000000000000000000062
:103D60000000000000000000000000000000000053
:103D70000000000000000000000000000000000043
:103D80000000000000000000000000000000000033
:103D90000000000000000000000000000000000023
:103DA0000000000000000000000000000000000013
:103DB00000F83F07F83F07F83F0700000000000049
:103DC00000000000000000000000000000000000F3
:103DD00000000000007C00007C00007C000000006F
:103DE000000000007C00007C00007C00000000005F
:103DF0000000000000000000000060000063000000
:103E0000E30700FF07F07F00F0630000E30700FF17
:103E100007F07F00F0630000630000030000000073
:103E2000000000000000C00303E007066006063043
:103E30000C3E30FE1FF83F063C180630380360F099
:103E40000300E001000000000000000000E0030C9F
:103E5000F0070E30860730C603F0E700E07B000075
:103E6000DC0700EF0F80630CE0610C70E00F30C0E6
:103E70000700000000000000F000F0FC01F88F03D4
:103E80009C07030C0F030C1D038CB903F8E00170B1
:103E9000F00100F803001C0300080200000000000D
:103EA000000000000000000000000000007C000096
:103EB0007C00007C0000000000000000000000000A
:103EC00000000000000000000000000000000000F2
:103ED0000080FF01E0FF0FF8001F3C003C0E007067
:103EE000060060020040000000000000000000002A
:103EF00000000000000000000000000000000200C0
:103F0000400600600E00703C003CF8001FE0FF0718
:103F100080FF010000000000000000000000000021
:103F20000000100200380700300300E00100FE1F0F
:103F300000FE1F00E00100300300380700100200FF
:103F40000000000000000000000000000018000059
:103F50001800001800001800C0FF03C0FF0300187D
:103F60000000180000180000180000000000000009
:103F700000000000000000000000003000003000E1
:103F8000803900801F00801F000007000000000033
:103F90000000000000000000000000000000000021
:103FA00000000000180000180000180000180000B1
:103FB00018000018000018000000000000000000B9
:103FC00000000000000000000000000000000000F1
:103FD00000000100800300800300000100000000D9
:103FE00000000000000000000000000000000000D1
:103FF0000000003000003C00000F00C00300F00093
:10400000003C00000F00C00300F000003C00000C6A
:104010000000000000000000000000803F00E0FF02
:104020000070F001389803180C03180E03180603EB
:10403000388303F0C101E0FF00803F000000000072
:1040400000000000000000002000037000033000AA
:1040500003180003F8FF03F8FF0300000300000348
:10406000000003000000000000000000000000004D
:10407000000020000370800338C00318600318306C
:1040800003181803380E03F00703E00303000003CE
:1040900000000000000000000000000030000318D5
:1040A0000003180603180603180603380703F08DEB
:1040B00001E0FC01007800000000000000000000AA
:1040C000007000007800006E00806700C061007022
:1040D0006000386000F8FF03F8FF03006000006034
:1040E0000000600000000000000000000000000070
:1040F000F80703F807031806031806031806031841
:104100000603188E0118FC00007800000000000073
:1041100000000000000000000000007F00C0FF0160
:10412000608C0130060338060318060318060318CE
:104130008E0118FC01007800000000000000000063
:104140000000000018000018000018000318C00349
:1041500018F001183C00180F00D80300F8000038D0
:104160000000000000000000000000000000E0F07F
:1041700000F0F901389F03180F031806031806030F
:10418000180F03389F03F0F901E0F0000000000071
:104190000000000000000000C00300F00703300E24
:1041A00003180C03180C03188C03188C0130E6005C
:1041B000F07F00C01F0000000000000000000000B1
:1041C00000000000000000000000008083038083E6
:1041D00003808303000000000000000000000000D6
:1041E00000000000000000000000000000000000CF
:1041F000003000003080833980831F80831F0000DF
:1042000007000000000000000000000000000000A7
:10421000000000000000000800001C00003E00003C
:10422000360000630080C100C08001E080034000D0
:10423000010000000000000000000000000000007D
:104240000066000066000066000066000066000070
:104250006600006600006600006600006600000060
:1042600000000000000000000000400001E08003AA
:10427000C0800180C100006300003600003E0000E5
:104280001C0000080000000000000000000000000A
:10429000000000000000000C00000C80030C9E03D6
:1042A000189E03180600F00700E00300000000005D
:1042B000000000000000000000FC0380FF1FE0037E
:1042C0003870F87118FE630C0F630C03630CE36124
:1042D0000CFF630C0763388033F0FF19C07F0000C8
:1042E000000000000000C00300F803007F00E0674A
:1042F00000F06000386000F06000E06700007F00C0
:1043000000F80300C00300000000000000000000EF
:104310000000F8FF03F8FF03180603180603180649
:1043200003180603380703F08D01E0FC010070005C
:10433000000000000000000000803F00C0FF00E01F
:10434000E0013080013880031800031800031800D2
:104350000318000318000330800100000000000073
:10436000000000F8FF03F8FF03180003180003180B
:10437000000318000318800330800170E001E0FFA3
:1043800000803F000000000000000000000000006E
:10439000F8FF03F8FF0318060318060318060318AE
:1043A00006031806031806030000000000000000C2
:1043B00000000000000000000000F8FF03F8FF0309
:1043C000180600180600180600180600180600183F
:1043D00006000000000000000000000000000000D7
:1043E00000003F00C0FF00E0E00130800138000322
:1043F00018000318060318060318060318FE0330F6
:10440000FE01000000000000000000F8FF03F8FFBC
:10441000030006000006000006000006000006007B
:10442000000600F8FF03F8FF030000000000000092
:10443000000000000000000018000318000318002E
:1044400003F8FF03F8FF0318000318000318000324
:10445000000000000000000000000000000000005C
:10446000000018800118000318000318000318004A
:1044700003188003F8FF01F8FF00000000000000AF
:10448000000000000000000000000000F8FF03F83A
:10449000FF03000400001F00803B00E0F00070C03C
:1044A0000138800308000200000000000000000046
:1044B000000000000000000000F8FF03F8FF030008
:1044C00000030000030000030000030000030000DD
:1044D00003000000000000000000000000F8FF03DF
:1044E000F8FF03780000C00300000F000018000070
:1044F0000F00C00300700000F8FF03F8FF03000086
:1045000000000000000000000000F8FF03F8FF03B7
:10451000380000E00100800700003C0000F00000CF
:104520008003F8FF03F8FF03000000000000000014
:1045300000803F00E0FF0070C001388003180003D6
:1045400018000318000338800370C001E0FF0080EA
:104550003F00000000000000000000000000F8FF25
:1045600003F8FF031818001818001818001818008E
:10457000181800300C00F00700C003000000000015
:104580000000000000803F00E0FF0070C0013880A4
:104590000318000F18001F18003B38803370C0311B
:1045A000E0FF30803F18000018000000000000000D
:1045B0000000F8FF03F8FF03180C00180C00180C9B
:1045C00000181C00387600F0E701E08103000002CB
:1045D000000000000000000000E08101F003033053
:1045E0000303180603180603180C03180C03189C81
:1045F0000130F80100F000000000000000000000A1
:10460000000000180000180000180000180000F852
:10461000FF03F8FF0318000018000018000018003E
:1046200000000000000000000000000000F8FF0093
:10463000F8FF0100800300000300000300000300F6
:104640000003008001F8FF01F87F00000000000077
:1046500000000000000000380000F80300C01F0048
:1046600000FE0000E00300800300E00300FE00C045
:104670000F00F801003800000000000000000000FA
:1046800000F83F00F8FF0300E00300F803007E009D
:10469000000F00007E0000F80300C003F8FF03F8DD
:1046A0003F0000000000000000000208000318C0E6
:1046B0000378E000E07900C01F00000F00C01F0079
:1046C000E0790078E00018C0030800030000020051
:1046D0000000000000080000380000F00000C003E7
:1046E00000000F0000FC0300FC03000F00C00300EB
:1046F000F000003800000800000000000000001872
:10470000000318800318E003183803181C03180767
:1047100003980303F8000378000318000300000364
:104720000000000000000000000000000000000089
:104730000000FCFF7FFCFF7F0C00600C00600C00A1
:10474000600C00600000000000000000000000009D
:104750000000000C00003C0000F00000C00300005E
:104760000F00003C0000F00000C00300000F00003C
:104770003C000030000000000000000000000000CD
:104780000000000C00600C00600C00600C0060FC7D
:10479000FF7FFCFF7F000000000000000000000021
:1047A0000000000000000000000000030080030083
:1047B000E00000380000180000380000E000008031
:1047C00003000003000000000000000000000000E3
:1047D0006000006000006000006000006000006099
:1047E00000006000006000006000006000006000E9
:1047F0000060000060000060000000000000000099
:10480000000400000C00001C000038000030000014
:104810002000000000000000000000000000000078
:10482000000000000000000000E00100F3038039F8
:104830000380190380190380190380990100FF0385
:1048400000FE030000000000000000000000000067
:104850000000FCFF01FCFF030003030003038001D1
:104860000380010380010380830100FF00007E00BC
:10487000000000000000000000000000007C0000BC
:10488000FE01008701808303800103800103800112
:10489000038001030083010000000000000000000D
:1048A00000000000FC0000FE010083038001038083
:1048B000010380010380810180C101FCFF03FCFF33
:1048C00003000000000000000000000000007C0069
:1048D00000FF01009B0180190380190380190380E8
:1048E0001903801B03001F03001E000000000000CE
:1048F00000000000000000000300000300000300AF
:10490000000300F0FF03F8FF031C03000C03000C7E
:1049100003000C0000000000000000000000000088
:104920000000C01C00EE3F003F73803B638031639A
:10493000803163803163803B63801F33800F3E8012
:10494000011E000000000000000000000000FCFF4D
:1049500003FCFF030007000003008001008001004A
:1049600080030080FF0300FE030000000000000041
:1049700000000000000000008001038001038001AE
:10498000039C01039CFF039CFF0300000300000342
:104990000000030000000000000000000000000014
:1049A0000000800130800160800160800160800132
:1049B000609C01709CFF3F9CFF1F000000000000F6
:1049C000000000000000000000000000FCFF03FCED
:1049D000FF03001800003C0000760000E70080C3E1
:1049E000018081038000030000020000000000003D
:1049F0000000000000000C00030C00030C00030C7E
:104A00000003FCFF03FCFF030000030000030000A1
:104A10000300000000000000000000000000000093
:104A200080FF0380FF0300030080010080FF03007C
:104A3000FF0300030080010080FF0300FF0300006C
:104A40000000000000000000000080FF0380FF0362
:104A500000070080030080010080010080030080C7
:104A6000FF0300FE03000000000000000000000043
:104A700000007C0000FE010083018001038001032F
:104A800080010380010380810300830100FF000097
:104A90007C0000000000000000000000000080FF1B
:104AA0007F80FF7F000303800103800103800103F7
:104AB00080830100FF01007E000000000000000074
:104AC000000000000000FC0000FE010083038001E4
:104AD0000380010380010380810180C10180FF7F89
:104AE00080FF7F00000000000000000000000000C8
:104AF000000080FF0380FF0300030000030080012B
:104B00000080010080010080070000070000000015
:104B1000000000000000000000000000008601000E
:104B20000F03801903801903801103803103803142
:104B30000300E30100E000000000000000000000AE
:104B4000000000800100800100800100F8FF00F8F3
:104B5000FF01808103800103800103800103800144
:104B60000300000000000000000000000000000042
:104B700080FF0080FF0300800300000300000300AB
:104B8000800300C00180FF0380FF030000000000DD
:104B900000000000000000800100800F00003E00C7
:104BA00000F80000C00300800300C00300F800000C
:104BB0003E00800F008001000000000000000000A7
:104BC0000080FF0000FF0300800300E00300780086
:104BD000003C0000780000E00300800300FF038039
:104BE000FF000000000000000000008000028001C3
:104BF0000380830300CF01007C00003800007C00AC
:104C000000EE0180830380010380000200000000A9
:104C10000000000060800160800F60003E7000F8BE
:104C20003800C01F00000F00E00300FC00801F00E0
:104C300080030000000000000000000000000000F1
:104C4000000080010380810380C1038061038039FB
:104C500003800D038007038003038001030000002D
:104C6000000000000000000000000000001800002C
:104C70001800003C00F0FF1FF8E73F1C00700C001C
:104C8000600C006000000000000000000000000058
:104C9000000000000000000000000000000000FF15
:104CA000FF7FFFFF7F000000000000000000000009
:104CB00000000000000000000000000000000000F4
:104CC0000000000C00600C00601C0070F8E73FF072
:104CD000FF1F003C0000180000180000000000004A
:104CE00000000000000000003000003C00000C004C
:104CF000000C00001C000038000070000060000084
:104D00006000007800001800000000000000F8FFBC
:104D100001080001080001080001F8FF010000007F
:104D20000000000000000000000000000000000083
:104D30000000000000000000000000000000000073
:104D40000000000000000000000000000000000063
:104D50000000000000000000000000000000000053
:104D60000000000000000000000000000000000043
:104D70000000000000000000000000000000000033
:104D80000000000000000000000000000000000023
:104D90000000000000000000000000000000000013
:104DA0000000000000000000000000000000000003
:104DB00000000000000000000000000000000000F3
:104DC00000000000000000000000000000000000E3
:104DD00000000000000000000000000000000000D3
:104DE00000000000000000000000000000000000C3
:104DF00000000000000000000000000000000000B3
:104E000000000000000000000000000000000000A2
:104E1000000000003C00C0FF7F007E00C0FFFF3F9D
:104E20007E00C0FFFF3F7E00C0FFFF3F7E00C0FF4F
:104E3000FF013C0000000000000000000000000036
:104E40000000000000000000000000000000000062
:104E50000000000000000000000000000000000052
:104E60000000000000000000000000000000000042
:104E70000000000000000000000000000000000032
:104E80000000000000000000000000000000000022
:104E900000000000C03F00000000C0FF0100000053
:104EA000C0FF01000000C0FF01000000C07F000043
:104EB00000000000000000000000000000000000F2
:104EC00000000000000000000000C03F00000000E3
:104ED000C0FF01000000C0FF01000000C0FF010092
:104EE0000000C07F00000000000000000000000083
:104EF00000000000000000000000000000000000B2
:104F000000000000000000000000000000000000A1
:104F1000000000000038000000000738000000001A
:104F200007380000000007380000000007383E0086
:104F3000000087FF3F0000E0FFFF3F0000FFFFFF92
:104F40003F0000FFFF7F000000FF07380000000067
:104F50000738000000000738000000000738000094
:104F6000000007383E00000087FF3F0000E0FFFF21
:104F70003F0000FFFFFF3F0000FFFFFF010000FFB9
:104F80007F380000001F07380000000007380000CD
:104F9000000007380000000007380000000007008C
:104FA0000000000000000000000000000000000001
:104FB0000000000000000000000000E007001C00EE
:104FC00000F00F001C0000F81F00380000FC3F003C
:104FD0003800003E7E003800000E7C003800000ED5
:104FE0007800F8070007F0F0FF070007F0FFFF0761
:104FF00000E7FFFF7F00C0FFFF7F3800F0FFFF01E9
:105000003800F0FFC0033800F007C0031C000007A1
:1050100080071C000007800F1F00000E00FF0F001C
:10502000000E00FF0700000000FE0300000000F873
:10503000010000000000000000000000000000006F
:1050400000000000000000002000007E0000300092
:1050500080FF01003C00C0FF03003E00C0FF038052
:105060001F00E08107C00700E00007E00300E00048
:1050700007F80100E000077C0000E081073F000026
:10508000C0FF830F0000C0FFE307000080FFF101B5
:105090000000007EFCE0070000003EF81F000080DA
:1050A0001FFC3F0000C00FFC3F0000E0031E780023
:1050B00000F8010E7000007C000E7000003F000E32
:1050C0007000800F001E7800C00700FC3F00C00188
:1050D00000FC3F00C00000F81F00000000E00700D7
:1050E000000000000000000000F80100000000FEC9
:1050F0000700000080FF1F0000F8C0FF1F0000FE37
:10510000C7073E0000FFEF013C0080FFFF00780072
:105110008087FF007000C003FE007000C001F8012E
:105120007000C001FC077000C001DE0F7000C003FA
:105130008F3F7000C0870F7F380080FF07FC3C0066
:1051400080FF03F81F0000FF01F01F00007C00E05B
:105150000F00000000FF3F00000080FF3F00000044
:10516000807F3E000000000F38000000000030008B
:10517000000000002000000000000000000000000F
:10518000000000000000000000000000000000001F
:10519000000000000000000000000000000000000F
:1051A00000000000000000000000000000000000FF
:1051B0000000000000000000C07F00000000C0FFF1
:1051C00001000000C0FF01000000C0FF010000005E
:1051D000C07F000000000000000000000000000090
:1051E00000000000000000000000000000000000BF
:1051F00000000000000000000000000000000000AF
:10520000000000000000000000000000000000009E
:10521000000000000000000000000000000000008E
:10522000000000000000000000000000000000007E
:10523000000000000000000000000000000000006E
:1052400000000000E07F00000000FEFF070000807B
:10525000FFFF1F0000E0FFFF7F0000F81F80FF013D
:1052600000FC0100FC03007F0000E00F801F000035
:10527000801FC00F0000003FE0030000007CF00131
:10528000000000F8E0000000007040000000002076
:10529000000000000000000000000000000000000E
:1052A00000000000000000000000000000000000FE
:1052B00000000000000000000000000000000000EE
:1052C00000000000000000000000000000000000DE
:1052D0000000000000000000400000000020E0008E
:1052E00000000070F001000000F8E0030000007C06
:1052F000C00F0000003F801F0000801F007F0000E3
:10530000E00F00FC0300F80300F81F80FF0100E03D
:10531000FFFF7F000080FFFF1F000000FEFF07006F
:105320000000E07F0000000000000000000000001E
:10533000000000000000000000000000000000006D
:10534000000000000000000000000000000000005D
:10535000000000000000000000000000000000004D
:105360000000000804000000000E1C000000001CEB
:105370000E000000001C0E000000003807000000B6
:1053800000380700000000700300000000E001008A
:105390000000C0FFFF010000C0FFFF010000C0FFD0
:1053A000FF01000000E001000000007003000000A9
:1053B000003807000000003807000000001C0E0045
:1053C0000000001E1E000000000E1C00000000086F
:1053D00004000000000000000000000000000000C9
:1053E00000000000000000000000000000000000BD
:1053F00000000000000000000000000700000000A6
:105400000007000000000007000000000007000087
:105410000000000700000000000700000000000777
:1054200000000000000700000000000700000080EE
:10543000FFFF0F000080FFFF0F000080FFFF0F0045
:105440000080FFFF0F0000000007000000000007C1
:10545000000000000007000000000007000000003E
:105460000007000000000007000000000007000027
:10547000000000070000000000070000000000001E
:10548000000000000000000000000000000000001C
:10549000000000000000000000000000000000000C
:1054A00000000000000000000000003800000000C4
:1054B000003800000000003800000000003C000040
:1054C00000000F1C000000801F1E00000080FF0F66
:1054D00000000080FF0F00000080FF0700000000B8
:1054E000FF0300000000FC000000000000000000BE
:1054F00000000000000000000000000000000000AC
:10550000000000000000000000000000000000009B
:10551000000000000000000000000000000000008B
:10552000000000000000000000000000000000007B
:10553000000000000000000000000000000000006B
:105540000000000000000000000000070000000054
:105550000007000000000007000000000007000036
:105560000000000700000000000700000000000726
:10557000000000000007000000000007000000001D
:105580000007000000000007000000000007000006
:1055900000000007000000000007000000000000FD
:1055A00000000000000000000000000000000000FB
:1055B00000000000000000000000000000000000EB
:1055C00000000000000000000000000000000000DB
:1055D00000000000000000000000000000000000CB
:1055E00000000000000000000000000000000000BB
:1055F000000000000000000000001E00000000008D
:105600003F00000000807F00000000807F0000005D
:1056100000807F00000000807F00000000003F004D
:10562000000000001E00000000000000000000005C
:10563000000000000000000000000000000000006A
:10564000000000000000000000000000000000005A
:10565000000000000000000000000000000000004A
:10566000000000000000000000000000000000003A
:105670000000000400000000000700000000E00738
:1056800000000000F80700000000FE01000000C05C
:105690007F00000000F01F00000000FC030000007D
:1056A00080FF00000000E03F00000000F80F000055
:1056B0000000FF01000000C07F00000000F01F009C
:1056C000000000FE0300000080FF00000000C03F5B
:1056D00000000000C00700000000C0010000000042
:1056E000400000000000000000000000000000007A
:1056F00000000000000000000000000000000000AA
:10570000000000000000FE1F000000C0FFFF0000BE
:1057100000F0FFFF030000FCFFFF0F0000FE01F898
:105720001F00003E001C3F00000F001E3C00000751
:10573000000F78008007800778008003C0037000A6
:105740008003C00170008003E00070008003F0005F
:10575000700080077800780080073C003800000F58
:105760001E003C00003F0F001F0000FE07E01F006E
:1057700000FCFFFF0F0000F0FFFF030000C0FFFF71
:1057800000000000FE1F00000000000000000000FC
:105790000000000000000000000000000000000009
:1057A00000000000000000200000000000F00000E9
:1057B0003800007000003800007800003800003821
:1057C00000003800001C00003800001C00003800F9
:1057D000000E0000380000060000380000FFFFFF48
:1057E0003F0000FFFFFF3F0000FFFFFF3F0000FF03
:1057F000FFFF3F00000000003800000000003800FC
:105800000000000038000000000038000000000028
:1058100038000000000038000000000038000000E0
:105820000000000000000000000000000000000078
:105830000000000000000000000000000000000068
:105840000000000400003800000E00003C00001EB4
:1058500000003E00000F00803F00000700C03F0036
:10586000800700E03B00800300F03900800300F86F
:1058700038008003007C38008003003E380080033D
:10588000001F38008007800F3800000FE007380045
:10589000001FF803380000FEFF01380000FEFF0083
:1058A000380000F83F00380000E00F00380000002A
:1058B0000000380000000000380000000000000078
:1058C00000000000000000000000000000000000D8
:1058D00000000000000000000000000000000000C8
:1058E0000000000000000000380000070000380041
:1058F0000007000070008003000070008003E000DB
:1059000070008003E00070008003E00070008003FE
:10591000E00070008003E00070008003E000700091
:105920008003E00078008007F00138000007F801EC
:105930003800001FFC033C0000FF9F071F0000FE13
:105940008FFF0F0000FC07FF070000F003FE0300BD
:10595000000000F80000000000000000000000004F
:105960000000000000000000000000000000000037
:10597000007800000000007C00000000007F0000B4
:105980000000807F00000000E07700000000F0735E
:1059900000000000FC70000000007E70000000802D
:1059A0001F70000000C00F70000000F003700000C6
:1059B00000F801700000007E00700000003F0070E1
:1059C0000000001F0070000000FFFFFF3F0000FF0D
:1059D000FFFF3F0000FFFFFF3F0000FFFFFF3F0012
:1059E0000000007000000000007000000000007067
:1059F00000000000007000000000007000000000C7
:105A00000000000000000000000000000000000096
:105A10000000000000000000000000000000000086
:105A2000380000FF7F00380000FF7F00700000FF9B
:105A30007F00700000FF7F007000000770007000A2
:105A40000007700070000007700070000007700011
:105A500070000007700078000007F00038000007B1
:105A6000F0003C000007E0011E000007E0031F00FB
:105A70000007C0FF0F000007C0FF0700000000FF85
:105A80000300000000FE0000000000000000000015
:105A90000000000000000000000000000000000006
:105AA00000000000000000000000000000000000F6
:105AB00000000000F07F00000000FFFF030000C0B6
:105AC000FFFF070000E0FFFF1F0000F0C3811F0081
:105AD00000F8E0003E00003CE0003800001CE00060
