:020000040800F2
:10000000F0040020D5000008190E0008A70D000814
:1000100000000000000000000000000000000000E0
:10002000000000000000000000000000630E000857
:100030000000000000000000610E0008650E0008CE
:10004000E700000800000000E7000008E7000008E3
:10005000E7000008E7000008E7000008E7000008E4
:1000600000000000E7000008E7000008E7000008C3
:10007000E7000008E7000008E700000800000000B3
:10008000E7000008E7000008E7000008E7000008B4
:10009000E7000008E7000008E7000008E7000008A4
:1000A000E7000008E7000008E7000008F112000878
:1000B000E70000080113000800000000E700000846
:1000C0000348854600F02AF800480047311300082D
:1000D000F00400200448804704480047FEE7FEE79C
:1000E000FEE7FEE7FEE7FEE7DD0E0008C1000008C0
:1000F00030B50B46014600202022012409E00D46C0
:10010000D5409D4205D31D469540491B2546954047
:1001100040191546521E002DF1DC30BD064C01255C
:10012000064E05E0E36807CC2B430C3C984710349F
:10013000B442F7D3FFF7C8FF94130008B4130008C4
:1001400070B50024014620314A78022A03D00421E8
:100150008163012416E0026813680E25AB43136027
:10016000026813685B085B0013600122056C13468C
:10017000AB40C56B6B604A7000220A70416B00296E
:1001800000D08847204670BDF8B500238DE00124DB
:100190009C40A44622407DD04C68022C01D0122CF9
:1001A0000CD1DC08A40027183C6A5D07ED0E0F2671
:1001B000AE40B4430E69AE4026433E6205685E0021
:1001C0000324B4400F79A543BF07BF0FB7402F43A7
:1001D00007604D68012D05D0022D03D0112D01D0EF
:1001E000122D0ED18568CF68A543B7402F43876095
:1001F00047686546AF430D79ED06ED0F9D403D43E1
:100200004560C568A5438C68B4402C43C4604C6805
:10021000E40049D5284CA56901263543A561A469A8
:100220009D0834400094254CAD002F19BC689D07F3
:100230002E0F0F25B540AC430925ED06A84201D18C
:1002400000250FE01E4DA84201D101250AE01D4DF9
:10025000A84201D1022505E01B4DA84201D103258A
:1002600000E00525B5402543BD60184C25684E6863
:100270009543F60300D51543256065684E689543A0
:10028000B60300D515436560A5684E689543F60230
:1002900002D500E008E01543A560E5684E68954387
:1002A000B60200D51543E5605B1C0A681446DC40C5
:1002B00000D06CE7F8BD00000010024000000140D3
:1002C0000004004800080048000C004800040140F9
:1002D00001480068704700000800002002480168DB
:1002E000491C0160704700000800002010B5064856
:1002F0000168102211430160002000F007F800F0AF
:1003000017F8002010BD00000020024010B5044680
:1003100000F04AF97D21C900FFF7EAFE00F04EFB2C
:1003200000222146501E00F029F8002010BD0000D8
:1003300008B50C4881690122114381618069104030
:10034000002200901146501F00F018F800221146BC
:10035000901E00F013F800221146501E00F00EF817
:1003600008BD000000100240C106C90E01208840EF
:10037000014908607047000000E100E010B500F09E
:100380004DFD10BDF8B505460068394CC00352D587
:10039000E0690026C00007D4E16920040143E1615F
:1003A000E16901400126009132480168C90510D475
:1003B0000168821511430160FFF78AFF074604E0D8
:1003C000FFF786FFC01B642824D82A480068C005B0
:1003D000F6D5206A03273F02384020D069683940AB
:1003E00081421CD0206A226AB843012109040A43D1
:1003F0002262226A8A4322622062C0070FD0FFF77E
:1004000067FF009008E0FFF763FF0099411A1A4860
:10041000814201D90320F8BD206A8007F3D5206A04
:100420006968B84308432062002E04D0E1690120C6
:1004300000078143E1612878C00705D0206BA968D7
:1004400080088000084320632878800605D5206B4B
:1004500010218843E968084320632868800305D594
:10046000206B802188432969084320630020F8BD60
:10047000001002400070004088130000F8B50546E7
:1004800044480E460068C007C00FB0420AD2414837
:10049000016849084900314301600068C007C00F86
:1004A000B0425CD128783C4C800705D56068F021CB
:1004B0008843A968084360602878C0073FD068680F
:1004C000012813D02168022813D08907002946DAB1
:1004D00061688908890001436160FFF7F9FE696876
:1004E000074601290DD0022917D024E0216889038D
:1004F000ECE78901EAE7FFF7EBFEC11B27488142E1
:1005000017D860680007800F0128F4D117E0FFF7C3
:10051000DFFEC11B214881420BD860680007800FB5
:100520000228F4D10BE0FFF7D3FEC11B1B48814228
:1005300001D90320F8BD60680007800FF3D115488A
:100540000168C907C90FB1420BD9016849084900C0
:10055000314301600068C007C00FB04201D00120E4
:10056000F8BD2878400706D560680721090288434E
:10057000E9680843606000F02DF86168084A0906E0
:10058000090F515CC840074908600020FFF7BEFE14
:100590000020F8BD00200240001002408813000037
:1005A0007C13000804000020014800687047000028
:1005B000040000200448054900684968044A4905C8
:1005C000490F515CC84070470400002000100240F1
:1005D0008C13000810B511A30FCB88B06C460FC464
:1005E00012A30FCB0FC415494A680C2013460340D1
:1005F0001348042B0FD0082B0DD193021B0F6C4610
:10060000E45CC96A04AB0907090FD203595C920F75
:10061000FFF76EFD604308B010BD00000203040543
:10062000060708090A0B0C0D0E0F10100102030437
:1006300005060708090A0B0C0D0E0F1000100240EA
:1006400000127A00FEB504460078D24DC00749D0AA
:1006500068680007800F012820D068680007800FB5
:10066000022804D16868C003800F022816D0012038
:1006700062680004012A18D08100002A01D0052AEE
:1006800017D02A6882432A602868884328606068F7
:1006900000281BD0FFF71CFE064613E028688003E5
:1006A00020D56068002876D01CE0296801432960C5
:1006B000EDE72A680A432A60F7E7FFF709FE801B87
:1006C000642869D828688003F7D50BE0FFF700FE9F
:1006D000064604E0FFF7FCFD801B6428F1D828687B
:1006E0008003F7D420780126800700283DDA686867
:1006F0000007800F13D068680007800F022804D11C
:100700006868C003800F012809D0E06800282868C5
:100710001CD030432860FFF7DBFD07460BE028685C
:1007200080070BD5E068012835D107E0FFF7D0FD41
:10073000C01B0228C5D828688007F7D52868F8218B
:1007400088432169C900084328600EE04008400042
:100750002860FFF7BDFD074604E0FFF7B9FDC01BA9
:100760000228AED828688007F7D42078000723D560
:10077000E0690028686A10D030436862FFF7A8FD7E
:10078000074604E0FFF7A4FDC01B022899D8686A59
:100790008007F7D510E0FAE0A4E040084000686266
:1007A000FFF796FD074604E0FFF792FDC01B022805
:1007B00087D8686A8007F7D4207804274007002884
:1007C00060DA00200190E869C00008D4E969B80641
:1007D0000143E961E96901400120009101906E48FF
:1007E0000168C90511D40168821511430160FFF742
:1007F0006FFD009005E0FFF76BFD0099401A64283B
:1008000070D865480068C005F5D5A06801280AD0F1
:10081000002801D0052810D0286A4008400028622E
:10082000286AB84301E0286A30432862A06800289B
:1008300012D0FFF74DFD00900AE0286A3843286285
:10084000F1E7FFF745FD0099411A5448814249D824
:10085000286A8007F5D50DE0FFF73AFD009006E025
:10086000FFF736FD0099411A4C4881423AD8286A70
:100870008007F5D40198002804D0E9690120000719
:100880008143E9612078C00635D5606901280CD024
:10089000401D686B23D038436863686B4008400094
:1008A0006863FFF715FD064622E0686B384368630E
:1008B000686B30436863FFF70BFD064604E0FFF703
:1008C00007FD801B02285BD8686B8007F7D5686B33
:1008D000F8218843A169C900084368630BE0B84365
:1008E0006863F4E74CE0FFF7F3FC801B022847D86D
:1008F000686B8007F7D4206A002846D0696809072A
:10090000890F022943D0012636060228286805D01F
:10091000B0432860FFF7DCFC044633E0B0432860B6
:10092000FFF7D6FC074604E0FFF7D2FCC01B022805
:1009300026D828688001F7D4E86AE16A0009000136
:100940000843E862616AA06A084369687B22D203AF
:10095000914308436860286830432860FFF7B8FC7B
:10096000044604E0FFF7B4FC001B022808D82868FE
:100970008001F7D509E0FFF7ABFC001B022801D985
:100980000320FEBD28688001F5D40020FEBD0120B3
:10099000FEBD0000001002400070004088130000FF
:1009A000042204490428086902D090430861704772
:1009B0001043FBE700E000E070470000094910B574
:1009C000401E884201D9012010BD074C60610321FF
:1009D000081F00F023FA0020A061072020610020FA
:1009E00010BD0000FFFFFF0000E000E010B5FFF7C2
:1009F000E3FF10BD70470000F8B503680446D969ED
:100A000018680D072D0F07D18A0605D5820603D574
:100A1000204600F029FBF8BD9A68002D64D0D50768
:100A2000ED0FFF26213606402E435DD0CE0706D0BF
:100A3000C60504D501261E62E36E3343E3668F07C5
:100A400002230426002F06DAD70704D027683B626A
:100A5000E76E3743E7664F0706D5D20704D0226812
:100A60001662E26E1A43E2660A0709D520220240A6
:100A70002A4305D0236808221A62E36E1343E36613
:100A8000E26E002AC7D0890604D5800602D520462A
:100A900000F0EAFAE06E000703D4206880684006A0
:100AA0001CD5204600F0C4FA20688168490611D59B
:100AB0008168402291438160606E00280AD012490B
:100AC0004163606EFFF73CFB0028A4D0606E416B71
:100AD0008847F8BD2046FFF78DFFF8BD2046FFF799
:100AE00089FF0020E066F8BD0A0605D5020603D599
:100AF000204600F099FBF8BD4906FCD54006FAD522
:100B0000204600F0A4FAF8BD1D10000870B50400DE
:100B100005D025466035687A002802D006E001201D
:100B200070BD00202872204600F026F8242068724C
:100B300020680168490849000160204600F0D2FAA7
:100B40000128EDD0606A002802D0204600F0F8F9B4
:100B5000206841680122D202914341602068816887
:100B600008229143816020680168012211430160DD
:100B7000204600F04AFA70BD30B5204D0468204888
:100B800002230121032287B0AC4218D185698C036E
:100B900025438561806902912040059050020090B4
:100BA00004910920019303926946C006FFF7ECFA0D
:100BB000002211461B20FFF7E1FB1B201AE0114D1C
:100BC000AC4219D1C5690124A4042543C561C0699B
:100BD00002912040059030200491009001930392EF
:100BE00069460948FFF7D0FA002211461D20FFF799
:100BF000C5FB1D20FFF7B8FB07B030BD0038014032
:100C0000001002400048004000080048F0B50346CC
:100C100060339C7A202C44D100290BD0002A09D0C3
:100C2000012584682D03AC4206D10669002E03D14C
:100C3000CE0701D00120F0BD1E7A012E31D0012651
:100C40001E724165014640310A834A83FF27AC4248
:100C500004D10269002A12D1134A0EE07F22002C2F
:100C600008D001252D07AC420AD10469002C04D01C
:100C70003F2202E00469002C01D08A8300E08F83C8
:100C80000021C16622229A72197201688A68324371
:100C90008A6000680168FF22213211430160002050
:100CA000F0BD0220F0BD0000FF01000010B500689B
:100CB000074988420BD1012206490748FFF7A6FFE2
:100CC00005480A2301220349703800F007F810BDD7
:100CD00000480040000000207C000020FFB50646D0
:100CE00004466036707A83B00D46202858D1002D16
:100CF0000CD00598002809D00120A168000381428A
:100D000007D12069002804D1E80702D0012007B0EC
:100D1000F0BD307A012843D0012030720020E06617
:100D200021207072FFF7D4FA0190274640370598CA
:100D300038820598788218E0788A401E7882069872
:100D40000090002280212046019B00F0A0FA00289C
:100D500018D10120A1680003814202D12069002836
:100D600012D02168287808856D1C788A0028E3D184
:100D700006980090002240212046019B00F087FA4F
:100D8000002808D00320C2E728882168C005C00DCC
:100D90000885AD1CE9E72020707200203072B6E7AC
:100DA0000220B4E77047FEE710B50C480A4901601D
:100DB0004B21C901416000218160C16001618161F5
:100DC000C1610C22016242614162FFF79FFE00286F
:100DD00000D0FEE710BD0000003801400C000020EC
:100DE00010B50C480A4901604B21C901416000213E
:100DF0008160C16001618161C1610C220162426157
:100E00004162FFF783FE002800D0FEE710BD00001E
:100E1000004800407C000020704700008307FF224C
:100E2000DB0E9A408907090E994000280BDA00076B
:100E3000000F0838830808489B001818C3699343BB
:100E40000B43C3617047830804489B001B18186854
:100E5000904308431860704700ED00E000E400E0B4
:100E60007047704710B5FFF739FAFFF7BFFD10BDA7
:100E700030B595B002200090012510200395002484
:100E8000049008946846FFF7DDFB002800D0FEE7D9
:100E900007200C900D940E9400210F940CA8FFF7DE
:100EA000EDFA002800D0FEE710A810951294FFF785
:100EB00069FA002800D0FEE7FFF776FB7D21C90024
:100EC000FFF716F9FFF77AFD0420FFF769FD00220E
:100ED0001146501EFFF752FA15B030BD1548016893
:100EE0000122114301604168134A114041600168C9
:100EF000124A11400160016801229204914301608D
:100F000041683F22120491434160C16A0909090105
:100F1000C162016BFF22943291430163016B802215
:100F200011430163416B490849004163002181601D
:100F300070470000001002400CB8FF08FFFFF6FEEB
:100F400010B5818CC90707D001684A6801235B048A
:100F50009A43836A1A434A60818C890707D50168DE
:100F60004A6801231B049A43C36A1A434A60818C6E
:100F7000490707D501684A6801239B049A43036B1C
:100F80001A434A60818C090707D501684A68012322
:100F9000DB039A43436B1A434A60818CC90607D529
:100FA0000268916801231B039943836B1943916085
:100FB000818C890607D501688A6801235B039A43FF
:100FC000C36B1A438A60818C490612D503685A683C
:100FD00001210905046C8A4322435A60026C8A424B
:100FE00007D10268516803235B059943436C194399
:100FF0005160818C090607D501684A680123DB042A
:10100000806C9A4302434A6010BD0021C1662022D1
:1010100060304272827201720846704710B5406AB1
:101020000022014640314A834A82FFF7E3FC10BDAB
:1010300001680A68FF2321339A430A6001688A68BD
:10104000520852008A60202160308172704710B5CA
:1010500001680A6840239A430A60202269210A54E1
:10106000FFF7A0FE002010BD70B5024640320346D7
:101070006033948B9D7A0168222D05D088690822FF
:1010800010438861022070BD898C01268568360373
:10109000B54202D10569002D0BD02140446D651C7D
:1010A00045652170518B491E0904090C518307D0F5
:1010B00015E0456D21402980416D891C4165F1E7AE
:1010C00001680A68FF242134A2430A6001688A6823
:1010D000520852008A6020219972FFF7E7FD002034
:1010E00070BD0000F8B504462369A268E5691A439B
:1010F000636910202B43002125681A432B680E4694
:10110000414F3B4013432B6023685A6803252D034E
:10111000AA43E5682A435A60236AA26925681A43EC
:10112000AB680B273F02BB431343AB60374A2568CC
:10113000954210D1364A126B9207920F14D0012AB1
:1011400005D0022A05D0032A0FD102200DE0042089
:101150000BE0082009E02F4A954205D02E4A95421F
:1011600002D02E4A954200D100200122E369D20329
:10117000934224D100280CD002280DD0042813D08B
:10118000082817D001260A0912010807400F10434A
:101190002FE0FFF70FFA09E06168214A480880183C
:1011A000FEF7A6FF81B2EEE7FFF714FA6168400090
:1011B0004A08F4E76168012248081204EFE70028B2
:1011C00008D0022809D004280BD0082814D0012602
:1011D0003046F8BDFFF7EEF905E06168114A4808AE
:1011E0000CE0FFF7F7F961684A088018FEF780FF06
:1011F00080B22168C860EBE7616848088018FEF794
:1012000077FF80B2E860E3E7F369FFEF0038014061
:10121000001002400044004000480040004C0040E4
:101220000024F40000127A006921095C212901D010
:101230000220704702464032518A002912D0012311
:1012400081681B03994202D10169002915D0C16C44
:101250004B1CC364006809780185508A401E508287
:101260000020704701680A6880239A430A6000687A
:101270000168402211430160F2E7C16C03680988EC
:10128000C905C90D1985C16C891CC164E5E7FFB5A5
:1012900081B017460E4604460A9D1DE0681C1BD00F
:1012A000002D05D0FFF714F80499401AA84213D96D
:1012B00020680168FF22A1329143016020688168A3
:1012C000490849008160202060346072A0720020CB
:1012D0002072032005B0F0BD2068C1693046884304
:1012E00004D00020B842D9D00020F3E70120F9E76C
:1012F00010B50248FFF780FB10BD00000C00002075
:1013000010B50248FFF778FB10BD00007C000020FC
:1013100002E008C8121F08C1002AFAD170477047BE
:10132000002001E001C1121F002AFBD1704700001C
:1013300008B5FEF7DBFFFFF79BFD0D484269012171
:10134000C9040A43426142690A4000924269891015
:101350000A434261406908400090FFF725FDFFF70E
:101360003FFD012203490448FFF750FCF9E7000064
:1013700000100240000000207C000020000000005F
:101380000000000001020304060708090000000035
:1013900001020304B4130008000000200C00000048
:1013A00010130008C01300080C000020E404000023
:1013B000201300080000000000127A000000000066
:04000005080000C12E
:00000001FF
