:020000040800F2
:10000000F0050020D500000821150008AD130008F8
:1000100000000000000000000000000000000000E0
:100020000000000000000000000000006B15000848
:100030000000000000000000691500086D150008B0
:10004000E700000800000000E7000008E7000008E3
:10005000E7000008E7000008E7000008E7000008E4
:100060000000000065020008E7000008E700000843
:10007000E7000008E7000008E700000800000000B3
:10008000E7000008E7000008E7000008E7000008B4
:10009000E7000008E7000008E7000008E7000008A4
:1000A000E7000008E7000008E7000008091A000858
:1000B000E7000008191A000800000000E700000827
:1000C0000348854600F032F800480047D11B00087D
:1000D000F00500200448804704480047FEE7FEE79B
:1000E000FEE7FEE7FEE7FEE7F5150008C1000008A1
:1000F00030B50B46014600202022012409E00D46C0
:10010000D5409D4205D31D469540491B2546954047
:1001100040191546521E002DF1DC30BD421C0178FD
:10012000401C0029FBD1801A70470000064C0125B5
:10013000064E05E0E36807CC2B430C3C984710348F
:10014000B442F7D3FFF7C0FF5C1E00087C1E000816
:1001500010B50146406A426C50231A420AD1416CE4
:1001600001225202114341640168CA681205920FCC
:1001700005D020E0C06B026B0846904710BD026AB4
:10018000002A18D10A68120715D58A685307012278
:10019000002B09DB4B680C24A3434B60416C13021A
:1001A00099431143416406E0416C202319434164A3
:1001B000816C1143816400F00BF910BD10B5406AE9
:1001C000416C402211434164816C042211438164DB
:1001D00000F000F910BD10B5406A00F0FAF810BD4B
:1001E000F8B5044600200090206881688907890FCF
:1001F000012905D10168C9072CD1C168090429D496
:100200008168154A102611400125002915D1816801
:1002100029438160124811490068FFF769FF00E037
:10022000401E00900028FBD100F0B6FB07460CE012
:1002300000F0B2FBC01B022807D9606C3043606439
:10024000A06C2843A0640120F8BD20680068C0436A
:10025000C007EDD10020F8BD1700008040420F001C
:100260000000002010B5024800F02EFA10BD00007A
:10027000AC01002010B5044600680549401814215F
:10028000FFF736FF800020640248E06310BD0000E5
:10029000F8FFFDBF0000024030B5056C0124AC4002
:1002A000C56B6C60046863604368102B036803D0FF
:1002B00099600068C26030BD9A600068C16030BD5E
:1002C000F8B500250446403400952278012A39D03B
:1002D0000122227003689E68760767D4384F4E6803
:1002E000BE424DD09E6A0F78BA4016439E620123EB
:1002F000826B1B079A421FD0012A1DD0022A1BD0F5
:10030000032A19D0042A17D0052A15D0062A13D09B
:10031000072A11D002688B6856697607760FB342B8
:100320000AD05369DB08DB005361006842690B7A2D
:100330005B075B0F1A4342610A68102A04D0112A36
:1003400002D038E00220F8BD1E488368102A07D08A
:1003500001229205134383600868102803D02AE025
:100360000122D205F6E7194817490068FFF7C0FED9
:100370000A21484300E0401E00900028FBD11AE00B
:10038000986A0E78B240904398620968102901D0AB
:10039000112910D10B488268102904D00121890548
:1003A0008A43826007E00121C905F9E7416C2022F8
:1003B000114341640125002020702846F8BD00004B
:1003C000011000000027014040420F000000002003
:1003D0007047704770470000F8B5002504460028B4
:1003E00003D0606C002802D008E00120F8BD002096
:1003F000A06440210855204600F0A8F8606C102247
:10040000C006002870DB2068816849076CD4616CE5
:100410001301994302231943616481688907890F95
:10042000012905D10168C9070FD1C16809040CD49D
:10043000C16818239943A3681943C1602068016902
:10044000636889008908194301612068C1683D4BD0
:100450001940C160A069E1698003C9030843216AAA
:100460004B031843636B012B02D001231B0300E0F5
:1004700000231843E36818432369022B09D00023A3
:100480001843236B666A5B0018430123012E02D0D8
:100490000AE00423F4E7002927D0616C20263143C9
:1004A0006164A16C1943A164A16A0E46FF3EC23E7D
:1004B00002D0E66A314308432168CE680643CE6025
:1004C0000126A16B3607B14213D0012911D00229B0
:1004D0000FD003290DD004290BD0052909D00629F6
:1004E00007D0072905D010E028E0012109040843BE
:1004F000DAE721684E69F608F6004E6121684E6918
:10050000278F7F077F0F3E434E612168C9680E4EDB
:100510003140814207D10020A064606C80088000D7
:10052000401C606408E0606C0221884310436064F2
:10053000A06C1843A06401252846F8BD606C1043E8
:100540006064F8E71902FEFFE7FF3F83F0B5064657
:100550000068184987B0884229D117488169471532
:100560003943816180690025384005900F20009053
:1005700003200190092069460295C00600F062F947
:100580000E480F4C21C4A760802025606060256163
:1005900000016561E0600A48083C00F0E3F80028CB
:1005A00003D06B2107A001F03FFAF463666207B045
:1005B000F0BD00000024014000100240080002408D
:1005C000AC0100202E2E2F5372632F73746D3332C3
:1005D000663078785F68616C5F6D73702E630000C1
:1005E000F7B5044600680025806840073DD42646DC
:1005F0004036307801280AD001273770E069012899
:1006000007D02046FFF7ECFD050002D02EE00220C7
:10061000FEBD606C16490840FF210131084360644B
:100620000020A0643070E16B12488862E16B1248D0
:10063000C862E16B1148086321681C2008602068CB
:1006400041681022114341602068C1683943C1608C
:100650002168E06B4031029B019A00F0AFF82068FE
:10066000816804221143816000E002252846FEBD16
:10067000FEF1FFFF51010008D7010008BD0100088D
:1006800070B50024014620314A78022A03D00421A3
:100690008163012416E0026813680E25AB431360E2
:1006A000026813685B085B0013600122056C134647
:1006B000AB40C56B6B604A7000220A70416B002929
:1006C00000D08847204670BDF0B4C16B0D6801684A
:1006D0000C680422066C1346B3402B420DD063070E
:1006E0000BD50B689B0602D40B6893430B60016C1F
:1006F0008A40C16B4A60C16A19E00227B7400246CE
:100700002F4001232032002F15D0A70713D50C68E6
:10071000A40604D40C680A25AC430C605370036C27
:1007200002219940C36B596000211170816A002930
:1007300016D0F0BC08470827B7402F4210D0240736
:100740000ED50C680E25AC430C60046C1946A14014
:10075000C46B61608363537000211170016BE6E725
:10076000F0BC704770B5040024D00220214620312F
:100770000D464870226811680F48A3680140606800
:1007800026691843E3683343184363691843A36930
:100790001843E3691843084310602046FFF76AFDD9
:1007A0000020A062E06220636063A06301216970A1
:1007B000287070BD012070BD0FC0FFFFF8B5044662
:1007C0008C46203001780025012909D001260670C9
:1007D00041780027012905D0077002252846F8BD79
:1007E0000220F8BD02214170A76320680168490812
:1007F0004900016061462046FFF74EFDE06A00288F
:100800002068016802D00E22114306E00A2211433B
:10081000016020680168042291430160206801683A
:1008200031430160DAE731B500F0B6F8009C0546C7
:10083000601C00D0641C00F0AFF8401BA042FAD34B
:1008400038BD0000F8B500238DE001249C40A4468B
:1008500022407DD04C68022C01D0122C0CD1DC0837
:10086000A40027183C6A5D07ED0E0F26AE40B44386
:100870000E69AE4026433E6205685E000324B44024
:100880000F79A543BF07BF0FB7402F4307604D68DF
:10089000012D05D0022D03D0112D01D0122D0ED126
:1008A0008568CF68A543B7402F4387604768654692
:1008B000AF430D79ED06ED0F9D403D434560C568A2
:1008C000A5438C68B4402C43C4604C68E40049D50F
:1008D000284CA56901263543A561A4699D083440CB
:1008E0000094254CAD002F19BC689D072E0F0F25D5
:1008F000B540AC430925ED06A84201D100250FE023
:100900001E4DA84201D101250AE01D4DA84201D18A
:10091000022505E01B4DA84201D1032500E0052575
:10092000B5402543BD60184C25684E689543F603D5
:1009300000D51543256065684E689543B60300D51C
:1009400015436560A5684E689543F60202D500E040
:1009500008E01543A560E5684E689543B60200D5EA
:100960001543E5605B1C0A681446DC4000D06CE768
:10097000F8BD0000001002400000014000040048E3
:1009800000080048000C004800040140002A01D083
:1009900081617047816270470148006870470000BC
:1009A0000400002002480168491C016070470000F3
:1009B0000400002010B506480168102211430160B0
:1009C000002000F007F800F017F8002010BD00002C
:1009D0000020024010B5044600F04AF97D21C9000C
:1009E000FFF786FB00F054FB00222146501E00F06A
:1009F00029F8002010BD000008B50C4881690122CB
:100A00001143816180691040002200901146501FFF
:100A100000F018F800221146901E00F013F8002292
:100A20001146501E00F00EF808BD000000100240F4
:100A3000C106C90E012088400149086070470000C6
:100A400000E100E010B500F06DFD10BDF8B5054601
:100A50000068394CC00352D5E0690026C00007D4B5
:100A6000E16920040143E161E1690140012600914F
:100A700032480168C90510D401688215114301602C
:100A8000FFF78AFF074604E0FFF786FFC01B6428D4
:100A900024D82A480068C005F6D5206A03273F02FB
:100AA000384020D06968394081421CD0206A226ACF
:100AB000B843012109040A432262226A8A4322625E
:100AC0002062C0070FD0FFF767FF009008E0FFF734
:100AD00063FF0099411A1A48814201D90320F8BDE9
:100AE000206A8007F3D5206A6968B843084320620A
:100AF000002E04D0E169012000078143E1612878DC
:100B0000C00705D0206BA9688008800008432063D7
:100B10002878800605D5206B10218843E9680843B2
:100B200020632868800305D5206B802188432969CC
:100B3000084320630020F8BD001002400070004010
:100B400088130000F8B5054644480E460068C00703
:100B5000C00FB0420AD241480168490849003143F8
:100B600001600068C007C00FB0425CD128783C4CDF
:100B7000800705D56068F0218843A9680843606054
:100B80002878C0073FD06868012813D02168022860
:100B900013D08907002946DA616889088900014372
:100BA0006160FFF7F9FE6968074601290DD0022947
:100BB00017D024E021688903ECE78901EAE7FFF711
:100BC000EBFEC11B2748814217D860680007800FE1
:100BD0000128F4D117E0FFF7DFFEC11B2148814255
:100BE0000BD860680007800F0228F4D10BE0FFF7F4
:100BF000D3FEC11B1B48814201D90320F8BD6068A8
:100C00000007800FF3D115480168C907C90FB14229
:100C10000BD9016849084900314301600068C007E9
:100C2000C00FB04201D00120F8BD2878400706D59A
:100C30006068072109028843E9680843606000F0A2
:100C40002DF86168084A0906090F515CC840074938
:100C500008600020FFF7BEFE0020F8BD0020024023
:100C60000010024088130000441E0008000000200D
:100C70000148006870470000000000200448054952
:100C800000684968044A4905490F515CC8407047EB
:100C90000000002000100240541E000830B514A3CC
:100CA0000FCB89B06C460FC415A30FCB0FC41849E6
:100CB0004A680C20144604401648042C03D0431004
:100CC000082C02D0184609B030BD9402240F6D469E
:100CD0002C5DC96A04AD0907090FD203695C920F44
:100CE000022A00D01846FFF703FA6043EBE7000042
:100CF00002030405060708090A0B0C0D0E0F10105D
:100D00000102030405060708090A0B0C0D0E0F105B
:100D1000001002400024F400FEB504460078D24DD5
:100D2000C00749D068680007800F012820D0686894
:100D30000007800F022804D16868C003800F0228D2
:100D400016D0012062680004012A18D08100002A10
:100D500001D0052A17D02A6882432A602868884370
:100D60002860606800281BD0FFF716FE064613E0D7
:100D70002868800320D56068002876D01CE02968A8
:100D800001432960EDE72A680A432A60F7E7FFF785
:100D900003FE801B642869D828688003F7D50BE020
:100DA000FFF7FAFD064604E0FFF7F6FD801B642816
:100DB000F1D828688003F7D420780126800700281E
:100DC0003DDA68680007800F13D068680007800F5D
:100DD000022804D16868C003800F012809D0E068A8
:100DE000002828681CD030432860FFF7D5FD07464F
:100DF0000BE0286880070BD5E068012835D107E0B3
:100E0000FFF7CAFDC01B0228C5D828688007F7D5A0
:100E10002868F82188432169C900084328600EE04A
:100E2000400840002860FFF7B7FD074604E0FFF7E1
:100E3000B3FDC01B0228AED828688007F7D42078FD
:100E4000000723D5E0690028686A10D03043686243
:100E5000FFF7A2FD074604E0FFF79EFDC01B022836
:100E600099D8686A8007F7D510E0FAE0A4E0400856
:100E700040006862FFF790FD074604E0FFF78CFD35
:100E8000C01B022887D8686A8007F7D42078042717
:100E90004007002860DA00200190E869C00008D40B
:100EA000E969B8060143E961E9690140012000915F
:100EB00001906E480168C90511D40168821511437B
:100EC0000160FFF769FD009005E0FFF765FD0099FF
:100ED000401A642870D865480068C005F5D5A06838
:100EE00001280AD0002801D0052810D0286A40081F
:100EF00040002862286AB84301E0286A304328622B
:100F0000A068002812D0FFF747FD00900AE0286A89
:100F100038432862F1E7FFF73FFD0099411A544832
:100F2000814249D8286A8007F5D50DE0FFF734FDE6
:100F3000009006E0FFF730FD0099411A4C488142CD
:100F40003AD8286A8007F5D40198002804D0E969C6
:100F5000012000078143E9612078C00635D560692A
:100F600001280CD0401D686B23D038436863686B40
:100F7000400840006863FFF70FFD064622E0686BFB
:100F800038436863686B30436863FFF705FD0646C6
:100F900004E0FFF701FD801B02285BD8686B800727
:100FA000F7D5686BF8218843A169C90008436863D5
:100FB0000BE0B8436863F4E74CE0FFF7EDFC801BFF
:100FC000022847D8686B8007F7D4206A002846D0EB
:100FD00069680907890F022943D0012636060228CD
:100FE000286805D0B0432860FFF7D6FC044633E0FC
:100FF000B0432860FFF7D0FC074604E0FFF7CCFCC5
:10100000C01B022826D828688001F7D4E86AE16A64
:10101000000900010843E862616AA06A0843696840
:101020007B22D203914308436860286830432860DC
:10103000FFF7B2FC044604E0FFF7AEFC001B0228F9
:1010400008D828688001F7D509E0FFF7A5FC001B48
:10105000022801D90320FEBD28688001F5D40020B4
:10106000FEBD0120FEBD00000010024000700040E7
:1010700088130000042204490428086902D0904320
:10108000086170471043FBE700E000E07047000094
:10109000094910B5401E884201D9012010BD074CF6
:1010A00060610321081F00F03DFA0020A0610720C5
:1010B0002061002010BD0000FFFFFF0000E000E005
:1010C00010B5FFF7E3FF10BD70470000F8B50368E7
:1010D0000446D96918680D072D0F07D18A0605D572
:1010E000820603D5204600F04BFBF8BD9A68002D20
:1010F00064D0D507ED0FFF26213606402E435DD084
:10110000CE0706D0C60504D501261E62E36E334322
:10111000E3668F0702230426002F06DAD70704D0E0
:1011200027683B62E76E3743E7664F0706D5D2076D
:1011300004D022681662E26E1A43E2660A0709D5F5
:10114000202202402A4305D0236808221A62E36E57
:101150001343E366E26E002AC7D0890604D58006F1
:1011600002D5204600F00CFBE06E000703D4206897
:10117000806840061CD5204600F0E6FA20688168A9
:10118000490611D58168402291438160606E002834
:101190000AD012494163606EFFF772FA0028A4D0AA
:1011A000606E416B8847F8BD2046FFF78DFFF8BDA4
:1011B0002046FFF789FF0020E066F8BD0A0605D546
:1011C000020603D5204600F0BBFBF8BD4906FCD55E
:1011D0004006FAD5204600F0C6FAF8BD35170008DB
:1011E00070B5040005D025466035687A002802D025
:1011F00006E0012070BD00202872204600F026F88D
:10120000242068722068016849084900016020466E
:1012100000F0F4FA0128EDD0606A002802D02046E0
:1012200000F01AFA206841680122D202914341601D
:10123000206881680822914381602068016801224A
:1012400011430160204600F06CFA70BD30B5204DAE
:101250000468204802230121032287B0AC4218D140
:1012600085698C0325438561806902912040059042
:101270005002009004910920019303926946C00630
:10128000FFF7E0FA002211461B20FFF7DBFB1B20D3
:101290001AE0114DAC4219D1C5690124A4042543BB
:1012A000C561C069029120400590302004910090F2
:1012B0000193039269460948FFF7C4FA00221146D8
:1012C0001D20FFF7BFFB1D20FFF7B2FB07B030BDAD
:1012D000003801400010024000480040000800486B
:1012E0007047FFB5064604466036707A83B00D46F7
:1012F000202858D1002D0CD00598002809D00120B5
:10130000A1680003814207D12069002804D1E807C1
:1013100002D0012007B0F0BD307A012843D001206F
:1013200030720020E06621207072FFF735FB0190DB
:1013300027464037059838820598788218E0788AE1
:10134000401E788206980090002280212046019B52
:1013500000F029FB002818D10120A1680003814278
:1013600002D12069002812D02168287808856D1CD8
:10137000788A0028E3D10698009000224021204678
:10138000019B00F010FB002808D00320C2E728884A
:101390002168C005C00D0885AD1CE9E720207072EA
:1013A00000203072B6E70220B4E77047FEE7000085
:1013B0003EB521492148002412C004604460012543
:1013C00004618560446185610821C461C160446233
:1013D000FF21C562C231846201620838FEF7FCFF5A
:1013E000002800D0FEE701200003019007200290B2
:1013F000009469461148FEF763FF002800D0FEE71D
:1014000069460E480095FEF75BFF002800D0FEE716
:101410000220009069460948FEF752FF002800D0DC
:10142000FEE70320009069460448FEF749FF0028C4
:1014300000D0FEE73EBD0000002401400C0000206B
:1014400010B5194886B04269012189050A434261F5
:1014500042690A400592426949110A434261426960
:101460000A400592426989000A43426142690A4082
:101470000592426949100A43426140690B4C084099
:101480000590002210212046FFF780FA10200090DE
:101490000021012002910391019069462046FFF747
:1014A000D1F906B010BD0000001002400004004851
:1014B00010B50C480A4901604B21C9014160002167
:1014C0008160C16001618161C1610C220162426180
:1014D0004162FFF785FE002800D0FEE710BD000046
:1014E000003801405800002010B50C480A4901603E
:1014F0004B21C901416000218160C16001618161AE
:10150000C1610C22016242614162FFF769FE00285D
:1015100000D0FEE710BD000000480040C8000020D9
:10152000704700008307FF22DB0E9A408907090EEF
:10153000994000280BDA0007000F08388308084894
:101540009B001818C36993430B43C361704783081A
:1015500004489B001B1818689043084318607047A4
:1015600000ED00E000E400E07047704710B5FFF7C1
:1015700019FAFFF7A5FD10BD70B596B00124112032
:1015800005940090019410200690000309908000BB
:101590000394022600250A9008960B956846FFF7EB
:1015A000BBFB002800D0FEE707200C900E95012120
:1015B0000D960F950CA8FFF7C5FA002800D0FEE79E
:1015C00010A812951094FFF741FA002800D0FEE70A
:1015D000FFF74EFB7D21C900FEF78AFDFFF758FD9E
:1015E0000420FFF747FD00221146501EFFF72AFA9C
:1015F00016B070BD154801680122114301604168B1
:10160000134A114041600168124A114001600168AB
:10161000012292049143016041683F2212049143E8
:101620004160C16A09090901C162016BFF2294325C
:1016300091430163016B802211430163416B4908AF
:1016400049004163002181607047000000100240A2
:101650000CB8FF08FFFFF6FE10B5818CC90707D054
:1016600001684A6801235B049A43836A1A434A600B
:10167000818C890707D501684A6801231B049A43B6
:10168000C36A1A434A60818C490707D501684A68D2
:1016900001239B049A43036B1A434A60818C090718
:1016A00007D501684A680123DB039A43436B1A4359
:1016B0004A60818CC90607D50268916801231B0323
:1016C0009943836B19439160818C890607D5016822
:1016D0008A6801235B039A43C36B1A438A60818C37
:1016E000490612D503685A6801210905046C8A432A
:1016F00022435A60026C8A4207D102685168032370
:101700005B059943436C19435160818C090607D5E9
:1017100001684A680123DB04806C9A4302434A60F3
:1017200010BD0021C16620226030427282720172B7
:101730000846704710B5406A0022014640314A838E
:101740004A82FFF7C1FC10BD01680A68FF232133FC
:101750009A430A6001688A68520852008A60202110
:1017600060308172704710B501680A6840239A435F
:101770000A60202269210A54FFF717FE002010BDDD
:1017800070B50246403203466033948B9D7A0168FF
:10179000222D05D08869082210438861022070BD7F
:1017A000898C012685683603B54202D10569002D72
:1017B0000BD02140446D651C45652170518B491E3D
:1017C0000904090C518307D015E0456D214029809B
:1017D000416D891C4165F1E701680A68FF242134E5
:1017E000A2430A6001688A68520852008A60202178
:1017F0009972FFF775FD002070BD0000F8B5044632
:101800002369A268E5691A43636910202B4300210C
:1018100025681A432B680E46414F3B4013432B600B
:1018200023685A6803252D03AA43E5682A435A60B2
:10183000236AA26925681A43AB680B273F02BB43A2
:101840001343AB60374A2568954210D1364A126B74
:101850009207920F14D0012A05D0022A05D0032A3C
:101860000FD102200DE004200BE0082009E02F4AF0
:10187000954205D02E4A954202D02E4A954200D17B
:1018800000200122E369D203934224D100280CD026
:1018900002280DD0042813D0082817D001260A09E1
:1018A00012010807400F10432FE0FFF7E7F909E0A6
:1018B0006168214A48088018FEF71AFC81B2EEE7F9
:1018C000FFF7ECF9616840004A08F4E7616801221B
:1018D00048081204EFE7002808D0022809D004289D
:1018E0000BD0082814D001263046F8BDFFF7C6F902
:1018F00005E06168114A48080CE0FFF7CFF961681C
:101900004A088018FEF7F4FB80B22168C860EBE754
:10191000616848088018FEF7EBFB80B2E860E3E7F7
:10192000F369FFEF0038014000100240004400401E
:1019300000480040004C00400024F40000127A00EF
:101940006921095C212901D00220704702464032FA
:10195000518A002912D0012381681B03994202D1C8
:101960000169002915D0C16C4B1CC364006809785B
:101970000185508A401E50820020704701680A6825
:1019800080239A430A600068016840221143016085
:10199000F2E7C16C03680988C905C90D1985C16CD6
:1019A000891CC164E5E7FFB581B017460E460446C1
:1019B0000A9D1DE0681C1BD0002D05D0FEF7ECFF32
:1019C0000499401AA84213D920680168FF22A13265
:1019D00091430160206881684908490081602020A6
:1019E00060346072A07200202072032005B0F0BD48
:1019F0002068C1693046884304D00020B842D9D05D
:101A00000020F3E70120F9E710B50248FFF75EFB7D
:101A100010BD00005800002010B50248FFF756FB2B
:101A200010BD0000C8000020FEE700000FB410B594
:101A300004A9074B02AA039800F01CF8044602A967
:101A4000002000F0BFF8204610BC08BC04B01847C6
:101A5000C51B000802E008C8121F08C1002AFAD1FD
:101A600070477047002001E001C1121F002AFBD11E
:101A700070470000FFB58DB00446002506E025281C
:101A80000AD0109A0F999047641C6D1C207800288A
:101A9000F5D1284611B0F0BD00270121484A009732
:101AA00000E00743641C23780846203B984010421E
:101AB000F7D120782E2817D1042007436078641CC2
:101AC0002A280CD10E98641C02C800910E900BE0DD
:101AD00000990A22514330394018641C0090207844
:101AE000014630390929F3D920780028D1D064285B
:101AF00008D0692806D075281ED0109A0F999047F3
:101B00006D1C5BE00A200E99019001C90E9100281E
:101B100002DA40422D2102E0390504D52B216A4624
:101B20001172012103E0F90704D02021F7E70BAE81
:101B30000B910DE00021FAE70A200E99019001C9EE
:101B40000E91F7E70199FEF7D3FA3031761E317026
:101B50000028F7D103A8801B20300190780701D519
:101B6000009801E0012000900199884201DD401AAF
:101B700000E000200027009006E002A8109AC05D57
:101B80000F9990476D1C7F1C0B988742F5DB04E092
:101B9000109A30200F9990476D1C0099481E0090B4
:101BA0000029F5DC05E03078109A761C0F999047F3
:101BB0006D1C0199481E01900029F4DC641C65E746
:101BC000092801000A68531C0B6010707047000060
:101BD00008B5FEF7EFFEFFF7CFFCFFF731FC8948B1
:101BE0004169012211434161406910400022009087
:101BF00011460920FEF726FF0920FEF719FFFFF71F
:101C0000D7FBFFF755FCFFF76FFC7F4D7F4C804FF4
:101C1000FF26F53604227C497E48FEF7E1FC7A482F
:101C20007DA134382A68FFF701FF77483438FEF782
:101C300075FA206077480A23062278A14C30FFF716
:101C400050FB2088704982B2343908460A23E038B4
:101C5000FFF747FB6F480A23012272A14C30FFF7C0
:101C600040FB69480A2306226CA1A438FFF739FB20
:101C70002088654982B2343908460A237038FFF754
:101C800030FB61480A23012266A1A438FFF729FB33
:101C90005D4861A134386A68FFF7C8FE5A48343895
:101CA000FEF73CFA20605B480A2307225EA14C3015
:101CB000FFF717FB2088544982B2343908460A23BB
:101CC000E038FFF70EFB53480A23012255A14C30A0
:101CD000FFF707FB4C480A23072253A1A438FFF75C
:101CE00000FB2088484982B2343908460A237038FC
:101CF000FFF7F7FA44480A2301224AA1A438FFF764
:101D0000F0FA414844A13438AA68FFF78FFE3E48F4
:101D10003438FEF703FA20603E480A23072244A124
:101D20004C30FFF7DEFA2088374982B23439084652
:101D30000A23E038FFF7D5FA36480A23012239A1F1
:101D40004C30FFF7CEFA30480A23072238A1A438D6
:101D5000FFF7C7FA20882C4982B2343908460A2393
:101D60007038FFF7BEFA28480A2301222DA1A438B3
:101D7000FFF7B7FA244828A13438EA68FFF756FE7F
:101D800021483438FEF7CAF9206022480A23082285
:101D900029A14C30FFF7A5FA20881B4982B23439BB
:101DA00008460A23E038FFF79CFA1A480A23012262
:101DB0001CA14C30FFF795FA13480A2308221EA1F4
:101DC000A438FFF78EFA20880F4982B234390846CA
:101DD0000A237038FFF785FA0B480A23012211A164
:101DE000A438FFF77EFA2868B04201D9012200E04A
:101DF000002210213846FEF7C9FD3046FEF713FDDC
:101E000008E70000001002406C01002008000020DC
:101E1000000400480C00002025640000495220699D
:101E2000732000000D0A00004D5135206973200019
:101E30004D5137206973200076616C33206973201F
:101E40000000000000000000000000000102030488
:101E50000607080900000000010203047C1E0008B8
:101E6000000000200C000000541A0008881E000822
:101E70000C000020E4050000641A000800127A003B
:081E800000000000000000005A
:04000005080000C12E
:00000001FF
