:020000040800F2
:1000000048040020D5000008950B0008050B0008E7
:1000100000000000000000000000000000000000E0
:10002000000000000000000000000000DF0B0008DE
:100030000000000000000000DD0B0008E10B0008DC
:10004000E700000800000000E7000008E7000008E3
:10005000E7000008E7000008E7000008E7000008E4
:1000600000000000E7000008E7000008E7000008C3
:10007000E7000008E7000008E700000800000000B3
:10008000E7000008E7000008E7000008E7000008B4
:10009000E7000008E7000008E7000008E7000008A4
:1000A000E7000008E7000008E7000008E700000894
:1000B000E7000008E700000800000000E700000873
:1000C0000348854600F02AF800480047650F0008FD
:1000D000480400200448804704480047FEE7FEE744
:1000E000FEE7FEE7FEE7FEE7490C0008C100000856
:1000F00030B50B46014600202022012409E00D46C0
:10010000D5409D4205D31D469540491B2546954047
:1001100040191546521E002DF1DC30BD064C01255C
:10012000064E05E0E36807CC2B430C3C984710349F
:10013000B442F7D3FFF7C8FFCC0F0008EC0F00085C
:1001400031B500F0AFF8009C0546601C00D0641C7F
:1001500000F0A8F8401BA042FAD338BDF8B5002340
:100160008DE001249C40A44622407DD04C68022CA6
:1001700001D0122C0CD1DC08A40027183C6A5D07C2
:10018000ED0E0F26AE40B4430E69AE4026433E62EC
:1001900005685E000324B4400F79A543BF07BF0F75
:1001A000B7402F4307604D68012D05D0022D03D0C5
:1001B000112D01D0122D0ED18568CF68A543B7400F
:1001C0002F43876047686546AF430D79ED06ED0F15
:1001D0009D403D434560C568A5438C68B4402C43B1
:1001E000C4604C68E40049D5284CA5690126354314
:1001F000A561A4699D0834400094254CAD002F19D9
:10020000BC689D072E0F0F25B540AC430925ED06B0
:10021000A84201D100250FE01E4DA84201D10125C1
:100220000AE01D4DA84201D1022505E01B4DA84260
:1002300001D1032500E00525B5402543BD60184CDC
:1002400025684E689543F60300D51543256065681B
:100250004E689543B60300D515436560A5684E68A2
:100260009543F60202D500E008E01543A560E56875
:100270004E689543B60200D51543E5605B1C0A68DD
:100280001446DC4000D06CE7F8BD000000100240CE
:10029000000001400004004800080048000C00482D
:1002A000000401400148006870470000040000207D
:1002B00002480168491C01607047000004000020EA
:1002C00010B506480168102211430160002000F0BB
:1002D00007F800F017F8002010BD000000200240D1
:1002E00010B5044600F0C4F87D21C900FFF700FFF7
:1002F00000F0B8FA00222146501E00F01FF800203E
:1003000010BD000008B50C488169012211438161CC
:1003100080691040002200901146501F00F00EF836
:1003200000221146901E00F009F800221146501ECE
:1003300000F004F808BD00000010024010B500F005
:100340002BFC10BDF8B5054644480E460068C007B2
:10035000C00FB0420AD24148016849084900314300
:1003600001600068C007C00FB0425CD128783C4CE7
:10037000800705D56068F0218843A968084360605C
:100380002878C0073FD06868012813D02168022868
:1003900013D08907002946DA61688908890001437A
:1003A0006160FFF77FFF6968074601290DD00229C8
:1003B00017D024E021688903ECE78901EAE7FFF719
:1003C00071FFC11B2748814217D860680007800F62
:1003D0000128F4D117E0FFF765FFC11B21488142D6
:1003E0000BD860680007800F0228F4D10BE0FFF7FC
:1003F00059FFC11B1B48814201D90320F8BD606829
:100400000007800FF3D115480168C907C90FB14231
:100410000BD9016849084900314301600068C007F1
:10042000C00FB04201D00120F8BD2878400706D5A2
:100430006068072109028843E9680843606000F0AA
:100440001DF86168084A0906090F515CC840074950
:1004500008600020FFF744FF0020F8BD00200240A4
:100460000010024088130000BC0F000800000020AC
:1004700001480068704700000000002010B511A37B
:100480000FCB88B06C460FC412A30FCB0FC4154915
:100490004A680C20134603401348042B0FD0082B46
:1004A0000DD193021B0F6C46E45CC96A04AB0907CB
:1004B000090FD203595C920FFFF71AFE604308B090
:1004C00010BD000002030405060708090A0B0C0D05
:1004D0000E0F10100102030405060708090A0B0C91
:1004E0000D0E0F100010024000127A00FEB50446F7
:1004F0000078D24DC00749D068680007800F0128F6
:1005000020D068680007800F022804D16868C00303
:10051000800F022816D0012062680004012A18D03A
:100520008100002A01D0052A17D02A6882432A6058
:10053000286888432860606800281BD0FFF7B2FE57
:10054000064613E02868800320D56068002876D02E
:100550001CE0296801432960EDE72A680A432A6004
:10056000F7E7FFF79FFE801B642869D8286880039F
:10057000F7D50BE0FFF796FE064604E0FFF792FE84
:10058000801B6428F1D828688003F7D420780126DE
:10059000800700283DDA68680007800F13D068687C
:1005A0000007800F022804D16868C003800F01286B
:1005B00009D0E068002828681CD030432860FFF785
:1005C00071FE07460BE0286880070BD5E06801281C
:1005D00035D107E0FFF766FEC01B0228C5D82868A2
:1005E0008007F7D52868F82188432169C9000843A6
:1005F00028600EE0400840002860FFF753FE0746E1
:1006000004E0FFF74FFEC01B0228AED82868800721
:10061000F7D42078000723D5E0690028686A10D055
:1006200030436862FFF73EFE074604E0FFF73AFEFC
:10063000C01B022899D8686A8007F7D510E0FAE055
:10064000A4E0400840006862FFF72CFE074604E083
:10065000FFF728FEC01B022887D8686A8007F7D4F6
:10066000207804274007002860DA00200190E8691C
:10067000C00008D4E969B8060143E961E9690140AD
:100680000120009101906E480168C90511D40168EC
:10069000821511430160FFF705FE009005E0FFF7AA
:1006A00001FE0099401A642870D865480068C005AA
:1006B000F5D5A06801280AD0002801D0052810D05F
:1006C000286A400840002862286AB84301E0286A86
:1006D00030432862A068002812D0FFF7E3FD0090A5
:1006E0000AE0286A38432862F1E7FFF7DBFD00994A
:1006F000411A5448814249D8286A8007F5D50DE04F
:10070000FFF7D0FD009006E0FFF7CCFD0099411AFD
:100710004C4881423AD8286A8007F5D401980028CD
:1007200004D0E969012000078143E9612078C0060F
:1007300035D5606901280CD0401D686B23D0384343
:100740006863686B400840006863FFF7ABFD0646CE
:1007500022E0686B38436863686B30436863FFF777
:10076000A1FD064604E0FFF79DFD801B02285BD833
:10077000686B8007F7D5686BF8218843A169C900C9
:10078000084368630BE0B8436863F4E74CE0FFF7A5
:1007900089FD801B022847D8686B8007F7D4206A40
:1007A000002846D069680907890F022943D001262D
:1007B00036060228286805D0B0432860FFF772FD8E
:1007C000044633E0B0432860FFF76CFD074604E0C1
:1007D000FFF768FDC01B022826D828688001F7D4DF
:1007E000E86AE16A000900010843E862616AA06AF8
:1007F000084369687B22D2039143084368602868F4
:1008000030432860FFF74EFD044604E0FFF74AFD41
:10081000001B022808D828688001F7D509E0FFF7F7
:1008200041FD001B022801D90320FEBD286880017C
:10083000F5D40020FEBD0120FEBD000000100240E6
:10084000007000408813000004220449042808694D
:1008500002D09043086170471043FBE700E000E0DE
:1008600070470000094910B5401E884201D9012097
:1008700010BD074C60610321081F00F08DF90020B6
:10088000A06107202061002010BD0000FFFFFF00D5
:1008900000E000E010B5FFF7E3FF10BD70B50346C0
:1008A00020331A7F012A27D001241C7702225A778D
:1008B0000326CA683602B2438E6800253243A60278
:1008C000B2434E6800683243E602B2430E683243D8
:1008D0002603B2430E6932436603B2434E69896907
:1008E0003243A603B2430A43E603B2430A434264D7
:1008F0005C771D77002070BD022070BD70B5024688
:100900002032137F012B1BD001231377022454774D
:10091000046865687026B5436560046865680E689C
:10092000354365600468A5688026B543A560006806
:10093000846849680C43846053770020107770BD49
:10094000022070BD0222014620314A7702681368F6
:1009500001200343136048770020704700B500680A
:10096000094985B088420CD1C014009000200221B2
:10097000029003900191049109206946C006FFF797
:10098000EDFB05B000BD0000002C0140F8B50646A7
:1009900004462036307F0D4601280DD001203077E7
:1009A000022070770427002A08D0042A16D0082ACB
:1009B0002AD00C2A4DD137E00220F8BD206800F083
:1009C000C5F9206881690822114381612068816925
:1009D000B9438161206881692A6912E0206800F0CA
:1009E000F9F9206882690121C9020A4382612068FD
:1009F00081690122920291438161206881692A699B
:100A000012021143816124E0206800F023FA20687B
:100A1000C26908210A43C2612068C169B943C16142
:100A20002068C1692A6912E0206800F055FA206840
:100A3000C1690122D2021143C1612068C26901214A
:100A400089028A43C2612068C1692A69120211437E
:100A5000C1610120707700203077F8BD70B50400C7
:100A600005D025462035687F002802D006E0012009
:100A700070BD00202877204600F00AF80220687731
:100A8000211D206800F012F901206877002070BD58
:100A900008B500680549884207D105488269C11434
:100AA0000A43826180690840009008BD002C014023
:100AB0000010024010B504460068012200F03AF927
:100AC0000C482168814208D00B48814205D00B4870
:100AD000814202D00A48814204D1486C0122D203EB
:100AE000104348642068016801221143016000201E
:100AF00010BD0000002C01400040014000440140B6
:100B000000480140FEE7000010B5204890B01E49A3
:100B100001600024042184604160046144611C4937
:100B20008461C160FFF79AFF002800D0FEE70E94B1
:100B30000EA916480F94FFF7E1FE002800D0FEE74B
:100B400060200C940894079009940B940C2207A938
:100B50000D940E48FFF71AFF002800D0FEE7012091
:100B60000094400301940590029403940494694610
:100B700006940648FFF792FE002800D0FEE70348DF
:100B8000FFF7ECFE10B010BD002C01400800002063
:100B900030750000704700008307FF22DB0E9A408B
:100BA0008907090E994000280BDA0007000F083862
:100BB000830808489B001818C36993430B43C3611B
:100BC0007047830804489B001B181868904308432B
:100BD0001860704700ED00E000E400E070477047E7
:100BE00010B5FFF765FBFFF755FE10BD10B590B0CF
:100BF000022000900120039010200024049008940B
:100C00006846FFF773FC002800D0FEE707200C9031
:100C10000D940E9400210F940CA8FFF793FB00286D
:100C200000D0FEE7FFF724FC7D21C900FFF760FA42
:100C3000FFF718FE0420FFF707FE00221146501EA2
:100C4000FFF77CFB10B010BD15480168012211436D
:100C500001604168134A114041600168124A114025
:100C600001600168012292049143016041683F22C2
:100C7000120491434160C16A09090901C162016B13
:100C8000FF22943291430163016B8022114301637F
:100C9000416B4908490041630021816070470000B1
:100CA000001002400CB8FF08FFFFF6FEF0B5026826
:100CB0001A4B1B4C984201D0A04203D17025AA4385
:100CC0004D682A43174D184E184F98420AD0A0423B
:100CD00008D0174CA04205D0A84203D0B04201D0A2
:100CE000B84205D11446032212029443CA68224333
:100CF0008024A2434C69224302608A68C2620A6867
:100D00008262984205D0A84203D0B04201D0B842D6
:100D100001D10969016301214161F0BD002C01404D
:100D200000040040004001400044014000480140F0
:100D30000020004010B50123046A8B409C430462EC
:100D4000036A8A401343036210BD0000F0B5026AD3
:100D5000520852000262056A436882697024A24305
:100D600092080C6892001443022295438A68164E3A
:100D70002A43144DA84207D0B04205D0134FB842C1
:100D800002D0134FB84206D10827BA43CF681743A1
:100D9000042297433A46A84207D0B04205D00B4DF3
:100DA000A84202D00A4DA84206D103252D02AB432A
:100DB0004D691D438B692B434360846149684163DE
:100DC0000262F0BD002C014000400140004401409F
:100DD0000048014070B5026A10239A430262056A16
:100DE0004268836973242402A3430C6824021C43D1
:100DF00020239D438B681B012B43124DA84208D131
:100E00001D46CB688026B5431B012B434025AB43D1
:100E100008E00D4DA84205D00C4DA84202D00C4D63
:100E2000A84208D10325AD02AA434D69AD00154380
:100E30008A6992002A43426084614968816303623F
:100E400070BD0000002C0140004001400044014002
:100E50000048014070B5026AFF2301339A430262E1
:100E6000056A4368C2697024A24392080C68920024
:100E700014430122520295438A6812022A43124DFA
:100E8000A84208D11546CA68C614B54312022A43BF
:100E90000515AA4308E00D4DA84205D00C4DA84207
:100EA00002D00C4DA84208D103252D03AB434D6958
:100EB0002D011D438B691B012B434360C4614968AD
:100EC000C163026270BD0000002C0140004001407F
:100ED000004401400048014030B5026A01231B0371
:100EE0009A430262046A4268C36973252D02AB43C8
:100EF0000D682D021D4301235B039C438B681B037C
:100F000023430C4CA04208D00B4CA04205D00B4C04
:100F1000A04202D00A4CA04205D10124A403A2435E
:100F20004C69A40122434260C561496801640362BF
:100F300030BD0000002C0140004001400044014051
:100F40000048014002E008C8121F08C1002AFAD177
:100F500070477047002001E001C1121F002AFBD139
:100F60007047000008B5FFF7ABF9FFF73FFE1048E8
:100F70004269012149040A434261406908400090E6
:100F8000FFF7C2FD0B48FFF7DDFC0C210948FFF716
:100F900091FD094F074E1925ED013C463068046468
:100FA0003220FFF7CDF8641CAC42F7DBF5E7000018
:100FB00000100240080000203A0700000000000076
:100FC000000000000102030406070809EC0F0008F6
:100FD0000000002008000000440F0008F40F000883
:100FE0000800002040040000540F000800127A009E
:040FF00000000000FD
:04000005080000C12E
:00000001FF
