:020000040800F2
:1000000008040020D5000008B7080008B50800085B
:1000100000000000000000000000000000000000E0
:10002000000000000000000000000000FF080008C1
:100030000000000000000000FD08000801090008A1
:10004000E700000800000000E7000008E7000008E3
:10005000E7000008E7000008E7000008E7000008E4
:1000600000000000E7000008E7000008E7000008C3
:10007000E7000008E7000008E700000800000000B3
:10008000E7000008E7000008E7000008E7000008B4
:10009000E7000008E7000008E7000008E7000008A4
:1000A000E7000008E7000008E7000008E700000894
:1000B000E7000008E700000800000000E700000873
:1000C0000348854600F02AF800480047F509000873
:1000D000080400200448804704480047FEE7FEE784
:1000E000FEE7FEE7FEE7FEE771090008C100000831
:1000F00030B50B46014600202022012409E00D46C0
:10010000D5409D4205D31D469540491B2546954047
:1001100040191546521E002DF1DC30BD064C01255C
:10012000064E05E0E36807CC2B430C3C984710349F
:10013000B442F7D3FFF7C8FF800A0008A00A0008FE
:1001400031B500F0B5F8009C0546601C00D0641C79
:1001500000F0AEF8401BA042FAD338BDF8B500233A
:100160008DE001249C40A44622407DD04C68022CA6
:1001700001D0122C0CD1DC08A40027183C6A5D07C2
:10018000ED0E0F26AE40B4430E69AE4026433E62EC
:1001900005685E000324B4400F79A543BF07BF0F75
:1001A000B7402F4307604D68012D05D0022D03D0C5
:1001B000112D01D0122D0ED18568CF68A543B7400F
:1001C0002F43876047686546AF430D79ED06ED0F15
:1001D0009D403D434560C568A5438C68B4402C43B1
:1001E000C4604C68E40049D5284CA5690126354314
:1001F000A561A4699D0834400094254CAD002F19D9
:10020000BC689D072E0F0F25B540AC430925ED06B0
:10021000A84201D100250FE01E4DA84201D10125C1
:100220000AE01D4DA84201D1022505E01B4DA84260
:1002300001D1032500E00525B5402543BD60184CDC
:1002400025684E689543F60300D51543256065681B
:100250004E689543B60300D515436560A5684E68A2
:100260009543F60202D500E008E01543A560E56875
:100270004E689543B60200D51543E5605B1C0A68DD
:100280001446DC4000D06CE7F8BD000000100240CE
:10029000000001400004004800080048000C00482D
:1002A00000040140002A01D08161704781627047DB
:1002B00001480068704700000400002002480168FF
:1002C000491C0160704700000400002010B506487A
:1002D0000168102211430160002000F007F800F0CF
:1002E00017F8002010BD00000020024010B50446A1
:1002F00000F0C4F87D21C900FFF7FAFE00F0BEFA55
:1003000000222146501E00F01FF8002010BD000002
:1003100008B50C4881690122114381618069104050
:10032000002200901146501F00F00EF800221146E6
:10033000901E00F009F800221146501E00F004F84B
:1003400008BD00000010024010B500F0B5FA10BD65
:10035000F8B5054644480E460068C007C00FB042D5
:100360000AD24148016849084900314301600068E8
:10037000C007C00FB0425CD128783C4C800705D53F
:100380006068F0218843A968084360602878C00746
:100390003FD06868012813D02168022813D089074C
:1003A000002946DA61688908890001436160FFF726
:1003B0007FFF6968074601290DD0022917D024E084
:1003C00021688903ECE78901EAE7FFF771FFC11BA8
:1003D0002748814217D860680007800F0128F4D1B0
:1003E00017E0FFF765FFC11B214881420BD8606809
:1003F0000007800F0228F4D10BE0FFF759FFC11B63
:100400001B48814201D90320F8BD60680007800FB6
:10041000F3D115480168C907C90FB1420BD901686A
:1004200049084900314301600068C007C00FB0426D
:1004300001D00120F8BD2878400706D56068072163
:1004400009028843E9680843606000F01DF86168AC
:10045000084A0906090F515CC84007490860002096
:10046000FFF744FF0020F8BD0020024000100240CA
:1004700088130000700A000800000020014800688E
:10048000704700000000002030B514A30FCB89B0E6
:100490006C460FC415A30FCB0FC418494A680C2033
:1004A000144604401648042C03D04310082C02D0F4
:1004B000184609B030BD9402240F6D462C5DC96A00
:1004C00004AD0907090FD203695C920F022A00D01C
:1004D0001846FFF70DFE6043EBE70000020304053A
:1004E000060708090A0B0C0D0E0F10100102030479
:1004F00005060708090A0B0C0D0E0F10001002402C
:100500000024F400FEB504460078D24DC00749D05F
:1005100068680007800F012820D068680007800FF6
:10052000022804D16868C003800F022816D0012079
:1005300062680004012A18D08100002A01D0052A2F
:1005400017D02A6882432A60286888432860606838
:1005500000281BD0FFF7ACFE064613E02868800396
:1005600020D56068002876D01CE029680143296006
:10057000EDE72A680A432A60F7E7FFF799FE801B38
:10058000642869D828688003F7D50BE0FFF790FE50
:10059000064604E0FFF78CFE801B6428F1D828682B
:1005A0008003F7D420780126800700283DDA6868A8
:1005B0000007800F13D068680007800F022804D15D
:1005C0006868C003800F012809D0E0680028286807
:1005D0001CD030432860FFF76BFE07460BE028680D
:1005E00080070BD5E068012835D107E0FFF760FEF2
:1005F000C01B0228C5D828688007F7D52868F821CD
:1006000088432169C900084328600EE04008400083
:100610002860FFF74DFE074604E0FFF749FEC01BC8
:100620000228AED828688007F7D42078000723D5A1
:10063000E0690028686A10D030436862FFF738FE2E
:10064000074604E0FFF734FEC01B022899D8686A09
:100650008007F7D510E0FAE0A4E0400840006862A7
:10066000FFF726FE074604E0FFF722FEC01B022824
:1006700087D8686A8007F7D42078042740070028C5
:1006800060DA00200190E869C00008D4E969B80682
:100690000143E961E96901400120009101906E4840
:1006A0000168C90511D40168821511430160FFF783
:1006B000FFFD009005E0FFF7FBFD0099401A64285C
:1006C00070D865480068C005F5D5A06801280AD033
:1006D000002801D0052810D0286A40084000286270
:1006E000286AB84301E0286A30432862A0680028DD
:1006F00012D0FFF7DDFD00900AE0286A3843286237
:10070000F1E7FFF7D5FD0099411A5448814249D8D5
:10071000286A8007F5D50DE0FFF7CAFD009006E0D6
:10072000FFF7C6FD0099411A4C4881423AD8286A21
:100730008007F5D40198002804D0E969012000075A
:100740008143E9612078C00635D5606901280CD065
:10075000401D686B23D038436863686B40084000D5
:100760006863FFF7A5FD064622E0686B38436863BF
:10077000686B30436863FFF79BFD064604E0FFF7B4
:1007800097FD801B02285BD8686B8007F7D5686BE4
:10079000F8218843A169C900084368630BE0B843A6
:1007A0006863F4E74CE0FFF783FD801B022847D81D
:1007B000686B8007F7D4206A002846D0696809076B
:1007C000890F022943D0012636060228286805D061
:1007D000B0432860FFF76CFD044633E0B043286067
:1007E000FFF766FD074604E0FFF762FDC01B022825
:1007F00026D828688001F7D4E86AE16A0009000178
:100800000843E862616AA06A084369687B22D203F0
:10081000914308436860286830432860FFF748FD2B
:10082000044604E0FFF744FD001B022808D82868AE
:100830008001F7D509E0FFF73BFD001B022801D935
:100840000320FEBD28688001F5D40020FEBD0120F4
:10085000FEBD000000100240007000408813000040
:10086000042204490428086902D0904308617047B3
:100870001043FBE700E000E070470000094910B5B5
:10088000401E884201D9012010BD074C6061032140
:10089000081F00F011F80020A0610720206100204F
:1008A00010BD0000FFFFFF0000E000E010B5FFF703
:1008B000E3FF10BDFEE770478307FF22DB0E9A407F
:1008C0008907090E994000280BDA0007000F083845
:1008D000830808489B001818C36993430B43C361FE
:1008E0007047830804489B001B181868904308430E
:1008F0001860704700ED00E000E400E070477047CA
:1009000010B5FFF7DBFCFFF7D1FF10BD30B591B09C
:1009100001200225019008950090039000040990A1
:10092000800000240A900B946846FFF7EBFD002836
:1009300000D0FEE707200C900E9401210D950F9436
:100940000CA8FFF705FD002800D0FEE7FFF796FD95
:100950007D21C900FFF7CCFBFFF790FF0420FFF7D4
:100960007FFF00221146501EFFF7EEFC11B030BD94
:10097000154801680122114301604168134A114082
:1009800041600168124A114001600168012292042D
:100990009143016041683F22120491434160C16A62
:1009A00009090901C162016BFF229432914301637D
:1009B000016B802211430163416B49084900416387
:1009C0000021816070470000001002400CB8FF0851
:1009D000FFFFF6FE02E008C8121F08C1002AFAD184
:1009E00070477047002001E001C1121F002AFBD1AF
:1009F0007047000086B0FFF769FCFFF787FF1A48D1
:100A00004269012189050A43426142690A4005920F
:100A1000426909110A4342614069144C084005903B
:100A2000002210212046FFF73DFC102000900120FD
:100A3000019000200290039069462046FFF78EFB4C
:100A40002546FF24F534012210212846FFF72AFC11
:100A50002046FFF775FB002210212846FFF722FCF5
:100A60002046FFF76DFBEEE700100240000400484F
:100A7000000000000000000001020304060708094E
:100A8000A00A00080000002008000000D4090008A7
:100A9000A80A00080800002000040000E40900087B
:080AA00000127A0000000000C2
:04000005080000C12E
:00000001FF
